{
  "contractName": "MentalHealth",
  "abi": [
    {
      "constant": false,
      "inputs": [
        {
          "internalType": "string",
          "name": "_healthID",
          "type": "string"
        },
        {
          "internalType": "string",
          "name": "_testID",
          "type": "string"
        },
        {
          "internalType": "address",
          "name": "_cryptoWalletAddress",
          "type": "address"
        }
      ],
      "name": "initializePatientMHTest",
      "outputs": [],
      "payable": false,
      "stateMutability": "nonpayable",
      "type": "function"
    },
    {
      "constant": false,
      "inputs": [
        {
          "internalType": "string",
          "name": "_testID",
          "type": "string"
        },
        {
          "internalType": "string",
          "name": "_questionOne",
          "type": "string"
        },
        {
          "internalType": "string",
          "name": "_questionTwo",
          "type": "string"
        },
        {
          "internalType": "string",
          "name": "_questionThree",
          "type": "string"
        },
        {
          "internalType": "string",
          "name": "_questionFour",
          "type": "string"
        },
        {
          "internalType": "string",
          "name": "_questionFive",
          "type": "string"
        },
        {
          "internalType": "string",
          "name": "_questionSix",
          "type": "string"
        },
        {
          "internalType": "string",
          "name": "_questionSeven",
          "type": "string"
        },
        {
          "internalType": "string",
          "name": "_score",
          "type": "string"
        }
      ],
      "name": "initializeChildhoodDetails",
      "outputs": [],
      "payable": false,
      "stateMutability": "nonpayable",
      "type": "function"
    },
    {
      "constant": false,
      "inputs": [
        {
          "internalType": "string",
          "name": "_testID",
          "type": "string"
        },
        {
          "internalType": "string",
          "name": "_questionOne",
          "type": "string"
        },
        {
          "internalType": "string",
          "name": "_questionTwo",
          "type": "string"
        },
        {
          "internalType": "string",
          "name": "_questionThree",
          "type": "string"
        },
        {
          "internalType": "string",
          "name": "_questionFour",
          "type": "string"
        },
        {
          "internalType": "string",
          "name": "_questionFive",
          "type": "string"
        },
        {
          "internalType": "string",
          "name": "_questionSix",
          "type": "string"
        },
        {
          "internalType": "string",
          "name": "_questionSeven",
          "type": "string"
        },
        {
          "internalType": "string",
          "name": "_questionEight",
          "type": "string"
        },
        {
          "internalType": "string",
          "name": "_questionNine",
          "type": "string"
        },
        {
          "internalType": "string",
          "name": "_score",
          "type": "string"
        }
      ],
      "name": "initializePHQ9Details",
      "outputs": [],
      "payable": false,
      "stateMutability": "nonpayable",
      "type": "function"
    },
    {
      "constant": false,
      "inputs": [
        {
          "internalType": "string",
          "name": "_testID",
          "type": "string"
        },
        {
          "internalType": "string",
          "name": "_text",
          "type": "string"
        },
        {
          "internalType": "string",
          "name": "_hash",
          "type": "string"
        },
        {
          "internalType": "string",
          "name": "_sentimentOne",
          "type": "string"
        },
        {
          "internalType": "string",
          "name": "_sentimentTwo",
          "type": "string"
        },
        {
          "internalType": "string",
          "name": "_score",
          "type": "string"
        }
      ],
      "name": "initializeSentimentDetails",
      "outputs": [],
      "payable": false,
      "stateMutability": "nonpayable",
      "type": "function"
    },
    {
      "constant": false,
      "inputs": [
        {
          "internalType": "string",
          "name": "_testID",
          "type": "string"
        },
        {
          "internalType": "string",
          "name": "_totalBlink",
          "type": "string"
        },
        {
          "internalType": "string",
          "name": "_blinkPerMinute",
          "type": "string"
        },
        {
          "internalType": "string",
          "name": "_cvScore",
          "type": "string"
        }
      ],
      "name": "initializeEmotionDetails",
      "outputs": [],
      "payable": false,
      "stateMutability": "nonpayable",
      "type": "function"
    },
    {
      "constant": false,
      "inputs": [
        {
          "internalType": "string",
          "name": "_testID",
          "type": "string"
        },
        {
          "internalType": "string",
          "name": "_score",
          "type": "string"
        }
      ],
      "name": "setFinalScore",
      "outputs": [],
      "payable": false,
      "stateMutability": "nonpayable",
      "type": "function"
    },
    {
      "constant": true,
      "inputs": [
        {
          "internalType": "string",
          "name": "_healthID",
          "type": "string"
        }
      ],
      "name": "getAllTestIDs",
      "outputs": [
        {
          "internalType": "string[]",
          "name": "_testIDs",
          "type": "string[]"
        }
      ],
      "payable": false,
      "stateMutability": "view",
      "type": "function"
    },
    {
      "constant": true,
      "inputs": [
        {
          "internalType": "string",
          "name": "_testID",
          "type": "string"
        }
      ],
      "name": "getChildhoodDetails",
      "outputs": [
        {
          "internalType": "string",
          "name": "_questionOne",
          "type": "string"
        },
        {
          "internalType": "string",
          "name": "_questionTwo",
          "type": "string"
        },
        {
          "internalType": "string",
          "name": "_questionThree",
          "type": "string"
        },
        {
          "internalType": "string",
          "name": "_questionFour",
          "type": "string"
        },
        {
          "internalType": "string",
          "name": "_questionFive",
          "type": "string"
        },
        {
          "internalType": "string",
          "name": "_questionSix",
          "type": "string"
        },
        {
          "internalType": "string",
          "name": "_questionSeven",
          "type": "string"
        },
        {
          "internalType": "string",
          "name": "_score",
          "type": "string"
        }
      ],
      "payable": false,
      "stateMutability": "view",
      "type": "function"
    },
    {
      "constant": true,
      "inputs": [
        {
          "internalType": "string",
          "name": "_testID",
          "type": "string"
        }
      ],
      "name": "getPHQ9Details",
      "outputs": [
        {
          "internalType": "string",
          "name": "_questionOne",
          "type": "string"
        },
        {
          "internalType": "string",
          "name": "_questionTwo",
          "type": "string"
        },
        {
          "internalType": "string",
          "name": "_questionThree",
          "type": "string"
        },
        {
          "internalType": "string",
          "name": "_questionFour",
          "type": "string"
        },
        {
          "internalType": "string",
          "name": "_questionFive",
          "type": "string"
        },
        {
          "internalType": "string",
          "name": "_questionSix",
          "type": "string"
        },
        {
          "internalType": "string",
          "name": "_questionSeven",
          "type": "string"
        },
        {
          "internalType": "string",
          "name": "_questionEight",
          "type": "string"
        },
        {
          "internalType": "string",
          "name": "_questionNine",
          "type": "string"
        },
        {
          "internalType": "string",
          "name": "_score",
          "type": "string"
        }
      ],
      "payable": false,
      "stateMutability": "view",
      "type": "function"
    },
    {
      "constant": true,
      "inputs": [
        {
          "internalType": "string",
          "name": "_testID",
          "type": "string"
        }
      ],
      "name": "getSentimentDetails",
      "outputs": [
        {
          "internalType": "string",
          "name": "_textSentiment",
          "type": "string"
        },
        {
          "internalType": "string",
          "name": "_audioHash",
          "type": "string"
        },
        {
          "internalType": "string",
          "name": "_sentimentOne",
          "type": "string"
        },
        {
          "internalType": "string",
          "name": "_sentimentTwo",
          "type": "string"
        },
        {
          "internalType": "string",
          "name": "_score",
          "type": "string"
        }
      ],
      "payable": false,
      "stateMutability": "view",
      "type": "function"
    },
    {
      "constant": true,
      "inputs": [
        {
          "internalType": "string",
          "name": "_testID",
          "type": "string"
        }
      ],
      "name": "getEmotionDetails",
      "outputs": [
        {
          "internalType": "string",
          "name": "_blinkCount",
          "type": "string"
        },
        {
          "internalType": "string",
          "name": "_blinkPerMinute",
          "type": "string"
        },
        {
          "internalType": "string",
          "name": "_cvScore",
          "type": "string"
        }
      ],
      "payable": false,
      "stateMutability": "view",
      "type": "function"
    },
    {
      "constant": true,
      "inputs": [
        {
          "internalType": "string",
          "name": "_testID",
          "type": "string"
        }
      ],
      "name": "getAllScores",
      "outputs": [
        {
          "internalType": "string",
          "name": "_historyScore",
          "type": "string"
        },
        {
          "internalType": "string",
          "name": "_phq9Score",
          "type": "string"
        },
        {
          "internalType": "string",
          "name": "_sentimentalScore",
          "type": "string"
        },
        {
          "internalType": "string",
          "name": "_videoScore",
          "type": "string"
        },
        {
          "internalType": "string",
          "name": "_finalScore",
          "type": "string"
        }
      ],
      "payable": false,
      "stateMutability": "view",
      "type": "function"
    },
    {
      "constant": true,
      "inputs": [
        {
          "internalType": "string",
          "name": "_testID",
          "type": "string"
        }
      ],
      "name": "getCompleteTestDetails",
      "outputs": [
        {
          "internalType": "address",
          "name": "_cryptoWalletAddress",
          "type": "address"
        },
        {
          "internalType": "string",
          "name": "_healthID",
          "type": "string"
        },
        {
          "internalType": "string",
          "name": "_childhoodScore",
          "type": "string"
        },
        {
          "internalType": "string",
          "name": "_phq9Score",
          "type": "string"
        },
        {
          "internalType": "string",
          "name": "_sentimentalScore",
          "type": "string"
        }
      ],
      "payable": false,
      "stateMutability": "view",
      "type": "function"
    }
  ],
  "bytecode": "0x608060405234801561001057600080fd5b50614b33806100206000396000f3fe608060405234801561001057600080fd5b50600436106100cf5760003560e01c80638bc735831161008c578063d8a7436b11610066578063d8a7436b1461022f578063f2f1ef2814610261578063fcc29b8e1461029a578063fff526fe146102ce576100cf565b80638bc73583146101c3578063b8b9369e146101df578063d34a2e46146101fb576100cf565b806318ccc2f0146100d45780631f15ea94146100f0578063201b986b1461010c5780632f5cb220146101285780637133067114610158578063890d11641461018c575b600080fd5b6100ee60048036036100e99190810190613f70565b6102ea565b005b61010a60048036036101059190810190613ef1565b610392565b005b61012660048036036101219190810190614033565b610b07565b005b610142600480360361013d9190810190613e44565b610bf7565b60405161014f91906146e3565b60405180910390f35b610172600480360361016d9190810190613e44565b610cfe565b604051610183959493929190614751565b60405180910390f35b6101a660048036036101a19190810190613e44565b6110a2565b6040516101ba9897969594939291906147c7565b60405180910390f35b6101dd60048036036101d8919081019061414c565b611651565b005b6101f960048036036101f491908101906142ea565b6117ae565b005b61021560048036036102109190810190613e44565b611955565b604051610226959493929190614674565b60405180910390f35b61024960048036036102449190810190613e44565b612cf4565b60405161025893929190614705565b60405180910390f35b61027b60048036036102769190810190613e44565b612f3b565b6040516102919a9998979695949392919061487d565b60405180910390f35b6102b460048036036102af9190810190613e44565b613649565b6040516102c5959493929190614751565b60405180910390f35b6102e860048036036102e39190810190613e85565b613a21565b005b6102f2613a5b565b604051806060016040528085815260200184815260200183815250905080600186604051610320919061465d565b9081526020016040518091039020601a01600082015181600001908051906020019061034d929190613a7c565b50602082015181600101908051906020019061036a929190613a7c565b506040820151816002019080519060200190610387929190613a7c565b509050505050505050565b60006001836040516103a4919061465d565b90815260200160405180910390206000016002018054600181600116156101000203166002900490501461040d576040517f08c379a00000000000000000000000000000000000000000000000000000000081526004016104049061495f565b60405180910390fd5b60008360405161041d919061465d565b9081526020016040518091039020829080600181540180825580915050906001820390600052602060002001600090919290919091509080519060200190610466929190613afc565b50506040518060c0016040528060405180606001604052808473ffffffffffffffffffffffffffffffffffffffff1681526020018681526020018581525081526020016040518061010001604052806040518060200160405280600081525081526020016040518060200160405280600081525081526020016040518060200160405280600081525081526020016040518060200160405280600081525081526020016040518060200160405280600081525081526020016040518060200160405280600081525081526020016040518060200160405280600081525081526020016040518060200160405280600081525081525081526020016040518061014001604052806040518060200160405280600081525081526020016040518060200160405280600081525081526020016040518060200160405280600081525081526020016040518060200160405280600081525081526020016040518060200160405280600081525081526020016040518060200160405280600081525081526020016040518060200160405280600081525081526020016040518060200160405280600081525081526020016040518060200160405280600081525081526020016040518060200160405280600081525081525081526020016040518060a00160405280604051806020016040528060008152508152602001604051806020016040528060008152508152602001604051806020016040528060008152508152602001604051806020016040528060008152508152602001604051806020016040528060008152508152508152602001604051806060016040528060405180602001604052806000815250815260200160405180602001604052806000815250815260200160405180602001604052806000815250815250815260200160405180602001604052806000815250815250600183604051610728919061465d565b908152602001604051809103902060008201518160000160008201518160000160006101000a81548173ffffffffffffffffffffffffffffffffffffffff021916908373ffffffffffffffffffffffffffffffffffffffff16021790555060208201518160010190805190602001906107a2929190613a7c565b5060408201518160020190805190602001906107bf929190613a7c565b50505060208201518160030160008201518160000190805190602001906107e7929190613a7c565b506020820151816001019080519060200190610804929190613a7c565b506040820151816002019080519060200190610821929190613a7c565b50606082015181600301908051906020019061083e929190613a7c565b50608082015181600401908051906020019061085b929190613a7c565b5060a0820151816005019080519060200190610878929190613a7c565b5060c0820151816006019080519060200190610895929190613a7c565b5060e08201518160070190805190602001906108b2929190613a7c565b505050604082015181600b0160008201518160000190805190602001906108da929190613a7c565b5060208201518160010190805190602001906108f7929190613a7c565b506040820151816002019080519060200190610914929190613a7c565b506060820151816003019080519060200190610931929190613a7c565b50608082015181600401908051906020019061094e929190613a7c565b5060a082015181600501908051906020019061096b929190613a7c565b5060c0820151816006019080519060200190610988929190613a7c565b5060e08201518160070190805190602001906109a5929190613a7c565b506101008201518160080190805190602001906109c3929190613a7c565b506101208201518160090190805190602001906109e1929190613a7c565b5050506060820151816015016000820151816000019080519060200190610a09929190613a7c565b506020820151816001019080519060200190610a26929190613a7c565b506040820151816002019080519060200190610a43929190613a7c565b506060820151816003019080519060200190610a60929190613a7c565b506080820151816004019080519060200190610a7d929190613a7c565b505050608082015181601a016000820151816000019080519060200190610aa5929190613a7c565b506020820151816001019080519060200190610ac2929190613a7c565b506040820151816002019080519060200190610adf929190613a7c565b50505060a082015181601d019080519060200190610afe929190613a7c565b50905050505050565b610b0f613b7c565b6040518060a0016040528087815260200186815260200185815260200184815260200183815250905080600188604051610b49919061465d565b90815260200160405180910390206015016000820151816000019080519060200190610b76929190613a7c565b506020820151816001019080519060200190610b93929190613a7c565b506040820151816002019080519060200190610bb0929190613a7c565b506060820151816003019080519060200190610bcd929190613a7c565b506080820151816004019080519060200190610bea929190613a7c565b5090505050505050505050565b6060600082604051610c09919061465d565b9081526020016040518091039020805480602002602001604051908101604052809291908181526020016000905b82821015610cf3578382906000526020600020018054600181600116156101000203166002900480601f016020809104026020016040519081016040528092919081815260200182805460018160011615610100020316600290048015610cdf5780601f10610cb457610100808354040283529160200191610cdf565b820191906000526020600020905b815481529060010190602001808311610cc257829003601f168201915b505050505081526020019060010190610c37565b505050509050919050565b6060806060806060610d0e613b7c565b600187604051610d1e919061465d565b90815260200160405180910390206015016040518060a0016040529081600082018054600181600116156101000203166002900480601f016020809104026020016040519081016040528092919081815260200182805460018160011615610100020316600290048015610dd35780601f10610da857610100808354040283529160200191610dd3565b820191906000526020600020905b815481529060010190602001808311610db657829003601f168201915b50505050508152602001600182018054600181600116156101000203166002900480601f016020809104026020016040519081016040528092919081815260200182805460018160011615610100020316600290048015610e755780601f10610e4a57610100808354040283529160200191610e75565b820191906000526020600020905b815481529060010190602001808311610e5857829003601f168201915b50505050508152602001600282018054600181600116156101000203166002900480601f016020809104026020016040519081016040528092919081815260200182805460018160011615610100020316600290048015610f175780601f10610eec57610100808354040283529160200191610f17565b820191906000526020600020905b815481529060010190602001808311610efa57829003601f168201915b50505050508152602001600382018054600181600116156101000203166002900480601f016020809104026020016040519081016040528092919081815260200182805460018160011615610100020316600290048015610fb95780601f10610f8e57610100808354040283529160200191610fb9565b820191906000526020600020905b815481529060010190602001808311610f9c57829003601f168201915b50505050508152602001600482018054600181600116156101000203166002900480601f01602080910402602001604051908101604052809291908181526020018280546001816001161561010002031660029004801561105b5780601f106110305761010080835404028352916020019161105b565b820191906000526020600020905b81548152906001019060200180831161103e57829003601f168201915b505050505081525050905080600001518160200151826040015183606001518460800151849450839350829250819150809050955095509550955095505091939590929450565b6060806060806060806060806110b6613bab565b60018a6040516110c6919061465d565b908152602001604051809103902060030160405180610100016040529081600082018054600181600116156101000203166002900480601f01602080910402602001604051908101604052809291908181526020018280546001816001161561010002031660029004801561117c5780601f106111515761010080835404028352916020019161117c565b820191906000526020600020905b81548152906001019060200180831161115f57829003601f168201915b50505050508152602001600182018054600181600116156101000203166002900480601f01602080910402602001604051908101604052809291908181526020018280546001816001161561010002031660029004801561121e5780601f106111f35761010080835404028352916020019161121e565b820191906000526020600020905b81548152906001019060200180831161120157829003601f168201915b50505050508152602001600282018054600181600116156101000203166002900480601f0160208091040260200160405190810160405280929190818152602001828054600181600116156101000203166002900480156112c05780601f10611295576101008083540402835291602001916112c0565b820191906000526020600020905b8154815290600101906020018083116112a357829003601f168201915b50505050508152602001600382018054600181600116156101000203166002900480601f0160208091040260200160405190810160405280929190818152602001828054600181600116156101000203166002900480156113625780601f1061133757610100808354040283529160200191611362565b820191906000526020600020905b81548152906001019060200180831161134557829003601f168201915b50505050508152602001600482018054600181600116156101000203166002900480601f0160208091040260200160405190810160405280929190818152602001828054600181600116156101000203166002900480156114045780601f106113d957610100808354040283529160200191611404565b820191906000526020600020905b8154815290600101906020018083116113e757829003601f168201915b50505050508152602001600582018054600181600116156101000203166002900480601f0160208091040260200160405190810160405280929190818152602001828054600181600116156101000203166002900480156114a65780601f1061147b576101008083540402835291602001916114a6565b820191906000526020600020905b81548152906001019060200180831161148957829003601f168201915b50505050508152602001600682018054600181600116156101000203166002900480601f0160208091040260200160405190810160405280929190818152602001828054600181600116156101000203166002900480156115485780601f1061151d57610100808354040283529160200191611548565b820191906000526020600020905b81548152906001019060200180831161152b57829003601f168201915b50505050508152602001600782018054600181600116156101000203166002900480601f0160208091040260200160405190810160405280929190818152602001828054600181600116156101000203166002900480156115ea5780601f106115bf576101008083540402835291602001916115ea565b820191906000526020600020905b8154815290600101906020018083116115cd57829003601f168201915b5050505050815250509050806000015181602001518260400151836060015184608001518560a001518660c001518760e001518797508696508595508494508393508292508191508090509850985098509850985098509850985050919395975091939597565b611659613bab565b6040518061010001604052808a81526020018981526020018881526020018781526020018681526020018581526020018481526020018381525090508060018b6040516116a6919061465d565b908152602001604051809103902060030160008201518160000190805190602001906116d3929190613a7c565b5060208201518160010190805190602001906116f0929190613a7c565b50604082015181600201908051906020019061170d929190613a7c565b50606082015181600301908051906020019061172a929190613a7c565b506080820151816004019080519060200190611747929190613a7c565b5060a0820151816005019080519060200190611764929190613a7c565b5060c0820151816006019080519060200190611781929190613a7c565b5060e082015181600701908051906020019061179e929190613a7c565b5090505050505050505050505050565b6117b6613bf0565b6040518061014001604052808c81526020018b81526020018a81526020018981526020018881526020018781526020018681526020018581526020018481526020018381525090508060018d60405161180f919061465d565b9081526020016040518091039020600b01600082015181600001908051906020019061183c929190613a7c565b506020820151816001019080519060200190611859929190613a7c565b506040820151816002019080519060200190611876929190613a7c565b506060820151816003019080519060200190611893929190613a7c565b5060808201518160040190805190602001906118b0929190613a7c565b5060a08201518160050190805190602001906118cd929190613a7c565b5060c08201518160060190805190602001906118ea929190613a7c565b5060e0820151816007019080519060200190611907929190613a7c565b50610100820151816008019080519060200190611925929190613a7c565b50610120820151816009019080519060200190611943929190613a7c565b50905050505050505050505050505050565b6000606080606080611965613c43565b600187604051611975919061465d565b90815260200160405180910390206040518060c0016040529081600082016040518060600160405290816000820160009054906101000a900473ffffffffffffffffffffffffffffffffffffffff1673ffffffffffffffffffffffffffffffffffffffff1673ffffffffffffffffffffffffffffffffffffffff168152602001600182018054600181600116156101000203166002900480601f016020809104026020016040519081016040528092919081815260200182805460018160011615610100020316600290048015611a8d5780601f10611a6257610100808354040283529160200191611a8d565b820191906000526020600020905b815481529060010190602001808311611a7057829003601f168201915b50505050508152602001600282018054600181600116156101000203166002900480601f016020809104026020016040519081016040528092919081815260200182805460018160011615610100020316600290048015611b2f5780601f10611b0457610100808354040283529160200191611b2f565b820191906000526020600020905b815481529060010190602001808311611b1257829003601f168201915b50505050508152505081526020016003820160405180610100016040529081600082018054600181600116156101000203166002900480601f016020809104026020016040519081016040528092919081815260200182805460018160011615610100020316600290048015611be65780601f10611bbb57610100808354040283529160200191611be6565b820191906000526020600020905b815481529060010190602001808311611bc957829003601f168201915b50505050508152602001600182018054600181600116156101000203166002900480601f016020809104026020016040519081016040528092919081815260200182805460018160011615610100020316600290048015611c885780601f10611c5d57610100808354040283529160200191611c88565b820191906000526020600020905b815481529060010190602001808311611c6b57829003601f168201915b50505050508152602001600282018054600181600116156101000203166002900480601f016020809104026020016040519081016040528092919081815260200182805460018160011615610100020316600290048015611d2a5780601f10611cff57610100808354040283529160200191611d2a565b820191906000526020600020905b815481529060010190602001808311611d0d57829003601f168201915b50505050508152602001600382018054600181600116156101000203166002900480601f016020809104026020016040519081016040528092919081815260200182805460018160011615610100020316600290048015611dcc5780601f10611da157610100808354040283529160200191611dcc565b820191906000526020600020905b815481529060010190602001808311611daf57829003601f168201915b50505050508152602001600482018054600181600116156101000203166002900480601f016020809104026020016040519081016040528092919081815260200182805460018160011615610100020316600290048015611e6e5780601f10611e4357610100808354040283529160200191611e6e565b820191906000526020600020905b815481529060010190602001808311611e5157829003601f168201915b50505050508152602001600582018054600181600116156101000203166002900480601f016020809104026020016040519081016040528092919081815260200182805460018160011615610100020316600290048015611f105780601f10611ee557610100808354040283529160200191611f10565b820191906000526020600020905b815481529060010190602001808311611ef357829003601f168201915b50505050508152602001600682018054600181600116156101000203166002900480601f016020809104026020016040519081016040528092919081815260200182805460018160011615610100020316600290048015611fb25780601f10611f8757610100808354040283529160200191611fb2565b820191906000526020600020905b815481529060010190602001808311611f9557829003601f168201915b50505050508152602001600782018054600181600116156101000203166002900480601f0160208091040260200160405190810160405280929190818152602001828054600181600116156101000203166002900480156120545780601f1061202957610100808354040283529160200191612054565b820191906000526020600020905b81548152906001019060200180831161203757829003601f168201915b5050505050815250508152602001600b820160405180610140016040529081600082018054600181600116156101000203166002900480601f01602080910402602001604051908101604052809291908181526020018280546001816001161561010002031660029004801561210b5780601f106120e05761010080835404028352916020019161210b565b820191906000526020600020905b8154815290600101906020018083116120ee57829003601f168201915b50505050508152602001600182018054600181600116156101000203166002900480601f0160208091040260200160405190810160405280929190818152602001828054600181600116156101000203166002900480156121ad5780601f10612182576101008083540402835291602001916121ad565b820191906000526020600020905b81548152906001019060200180831161219057829003601f168201915b50505050508152602001600282018054600181600116156101000203166002900480601f01602080910402602001604051908101604052809291908181526020018280546001816001161561010002031660029004801561224f5780601f106122245761010080835404028352916020019161224f565b820191906000526020600020905b81548152906001019060200180831161223257829003601f168201915b50505050508152602001600382018054600181600116156101000203166002900480601f0160208091040260200160405190810160405280929190818152602001828054600181600116156101000203166002900480156122f15780601f106122c6576101008083540402835291602001916122f1565b820191906000526020600020905b8154815290600101906020018083116122d457829003601f168201915b50505050508152602001600482018054600181600116156101000203166002900480601f0160208091040260200160405190810160405280929190818152602001828054600181600116156101000203166002900480156123935780601f1061236857610100808354040283529160200191612393565b820191906000526020600020905b81548152906001019060200180831161237657829003601f168201915b50505050508152602001600582018054600181600116156101000203166002900480601f0160208091040260200160405190810160405280929190818152602001828054600181600116156101000203166002900480156124355780601f1061240a57610100808354040283529160200191612435565b820191906000526020600020905b81548152906001019060200180831161241857829003601f168201915b50505050508152602001600682018054600181600116156101000203166002900480601f0160208091040260200160405190810160405280929190818152602001828054600181600116156101000203166002900480156124d75780601f106124ac576101008083540402835291602001916124d7565b820191906000526020600020905b8154815290600101906020018083116124ba57829003601f168201915b50505050508152602001600782018054600181600116156101000203166002900480601f0160208091040260200160405190810160405280929190818152602001828054600181600116156101000203166002900480156125795780601f1061254e57610100808354040283529160200191612579565b820191906000526020600020905b81548152906001019060200180831161255c57829003601f168201915b50505050508152602001600882018054600181600116156101000203166002900480601f01602080910402602001604051908101604052809291908181526020018280546001816001161561010002031660029004801561261b5780601f106125f05761010080835404028352916020019161261b565b820191906000526020600020905b8154815290600101906020018083116125fe57829003601f168201915b50505050508152602001600982018054600181600116156101000203166002900480601f0160208091040260200160405190810160405280929190818152602001828054600181600116156101000203166002900480156126bd5780601f10612692576101008083540402835291602001916126bd565b820191906000526020600020905b8154815290600101906020018083116126a057829003601f168201915b5050505050815250508152602001601582016040518060a0016040529081600082018054600181600116156101000203166002900480601f0160208091040260200160405190810160405280929190818152602001828054600181600116156101000203166002900480156127735780601f1061274857610100808354040283529160200191612773565b820191906000526020600020905b81548152906001019060200180831161275657829003601f168201915b50505050508152602001600182018054600181600116156101000203166002900480601f0160208091040260200160405190810160405280929190818152602001828054600181600116156101000203166002900480156128155780601f106127ea57610100808354040283529160200191612815565b820191906000526020600020905b8154815290600101906020018083116127f857829003601f168201915b50505050508152602001600282018054600181600116156101000203166002900480601f0160208091040260200160405190810160405280929190818152602001828054600181600116156101000203166002900480156128b75780601f1061288c576101008083540402835291602001916128b7565b820191906000526020600020905b81548152906001019060200180831161289a57829003601f168201915b50505050508152602001600382018054600181600116156101000203166002900480601f0160208091040260200160405190810160405280929190818152602001828054600181600116156101000203166002900480156129595780601f1061292e57610100808354040283529160200191612959565b820191906000526020600020905b81548152906001019060200180831161293c57829003601f168201915b50505050508152602001600482018054600181600116156101000203166002900480601f0160208091040260200160405190810160405280929190818152602001828054600181600116156101000203166002900480156129fb5780601f106129d0576101008083540402835291602001916129fb565b820191906000526020600020905b8154815290600101906020018083116129de57829003601f168201915b5050505050815250508152602001601a8201604051806060016040529081600082018054600181600116156101000203166002900480601f016020809104026020016040519081016040528092919081815260200182805460018160011615610100020316600290048015612ab15780601f10612a8657610100808354040283529160200191612ab1565b820191906000526020600020905b815481529060010190602001808311612a9457829003601f168201915b50505050508152602001600182018054600181600116156101000203166002900480601f016020809104026020016040519081016040528092919081815260200182805460018160011615610100020316600290048015612b535780601f10612b2857610100808354040283529160200191612b53565b820191906000526020600020905b815481529060010190602001808311612b3657829003601f168201915b50505050508152602001600282018054600181600116156101000203166002900480601f016020809104026020016040519081016040528092919081815260200182805460018160011615610100020316600290048015612bf55780601f10612bca57610100808354040283529160200191612bf5565b820191906000526020600020905b815481529060010190602001808311612bd857829003601f168201915b5050505050815250508152602001601d82018054600181600116156101000203166002900480601f016020809104026020016040519081016040528092919081815260200182805460018160011615610100020316600290048015612c9b5780601f10612c7057610100808354040283529160200191612c9b565b820191906000526020600020905b815481529060010190602001808311612c7e57829003601f168201915b5050505050815250509050806000015160000151816000015160200151826020015160e0015183604001516101200151846060015160800151839350829250819150809050955095509550955095505091939590929450565b6060806060612d01613a5b565b600185604051612d11919061465d565b9081526020016040518091039020601a01604051806060016040529081600082018054600181600116156101000203166002900480601f016020809104026020016040519081016040528092919081815260200182805460018160011615610100020316600290048015612dc65780601f10612d9b57610100808354040283529160200191612dc6565b820191906000526020600020905b815481529060010190602001808311612da957829003601f168201915b50505050508152602001600182018054600181600116156101000203166002900480601f016020809104026020016040519081016040528092919081815260200182805460018160011615610100020316600290048015612e685780601f10612e3d57610100808354040283529160200191612e68565b820191906000526020600020905b815481529060010190602001808311612e4b57829003601f168201915b50505050508152602001600282018054600181600116156101000203166002900480601f016020809104026020016040519081016040528092919081815260200182805460018160011615610100020316600290048015612f0a5780601f10612edf57610100808354040283529160200191612f0a565b820191906000526020600020905b815481529060010190602001808311612eed57829003601f168201915b5050505050815250509050806000015181602001518260400151829250819150809050935093509350509193909250565b606080606080606080606080606080612f52613bf0565b60018c604051612f62919061465d565b9081526020016040518091039020600b0160405180610140016040529081600082018054600181600116156101000203166002900480601f0160208091040260200160405190810160405280929190818152602001828054600181600116156101000203166002900480156130185780601f10612fed57610100808354040283529160200191613018565b820191906000526020600020905b815481529060010190602001808311612ffb57829003601f168201915b50505050508152602001600182018054600181600116156101000203166002900480601f0160208091040260200160405190810160405280929190818152602001828054600181600116156101000203166002900480156130ba5780601f1061308f576101008083540402835291602001916130ba565b820191906000526020600020905b81548152906001019060200180831161309d57829003601f168201915b50505050508152602001600282018054600181600116156101000203166002900480601f01602080910402602001604051908101604052809291908181526020018280546001816001161561010002031660029004801561315c5780601f106131315761010080835404028352916020019161315c565b820191906000526020600020905b81548152906001019060200180831161313f57829003601f168201915b50505050508152602001600382018054600181600116156101000203166002900480601f0160208091040260200160405190810160405280929190818152602001828054600181600116156101000203166002900480156131fe5780601f106131d3576101008083540402835291602001916131fe565b820191906000526020600020905b8154815290600101906020018083116131e157829003601f168201915b50505050508152602001600482018054600181600116156101000203166002900480601f0160208091040260200160405190810160405280929190818152602001828054600181600116156101000203166002900480156132a05780601f10613275576101008083540402835291602001916132a0565b820191906000526020600020905b81548152906001019060200180831161328357829003601f168201915b50505050508152602001600582018054600181600116156101000203166002900480601f0160208091040260200160405190810160405280929190818152602001828054600181600116156101000203166002900480156133425780601f1061331757610100808354040283529160200191613342565b820191906000526020600020905b81548152906001019060200180831161332557829003601f168201915b50505050508152602001600682018054600181600116156101000203166002900480601f0160208091040260200160405190810160405280929190818152602001828054600181600116156101000203166002900480156133e45780601f106133b9576101008083540402835291602001916133e4565b820191906000526020600020905b8154815290600101906020018083116133c757829003601f168201915b50505050508152602001600782018054600181600116156101000203166002900480601f0160208091040260200160405190810160405280929190818152602001828054600181600116156101000203166002900480156134865780601f1061345b57610100808354040283529160200191613486565b820191906000526020600020905b81548152906001019060200180831161346957829003601f168201915b50505050508152602001600882018054600181600116156101000203166002900480601f0160208091040260200160405190810160405280929190818152602001828054600181600116156101000203166002900480156135285780601f106134fd57610100808354040283529160200191613528565b820191906000526020600020905b81548152906001019060200180831161350b57829003601f168201915b50505050508152602001600982018054600181600116156101000203166002900480601f0160208091040260200160405190810160405280929190818152602001828054600181600116156101000203166002900480156135ca5780601f1061359f576101008083540402835291602001916135ca565b820191906000526020600020905b8154815290600101906020018083116135ad57829003601f168201915b5050505050815250509050806000015181602001518260400151836060015184608001518560a001518660c001518760e001518861010001518961012001518999508898508797508696508595508494508393508292508191508090509a509a509a509a509a509a509a509a509a509a50509193959799509193959799565b6060806060806060600186604051613661919061465d565b9081526020016040518091039020600301600701600187604051613685919061465d565b9081526020016040518091039020600b016009016001886040516136a9919061465d565b90815260200160405180910390206015016004016001896040516136cd919061465d565b9081526020016040518091039020601a0160020160018a6040516136f1919061465d565b9081526020016040518091039020601d01848054600181600116156101000203166002900480601f0160208091040260200160405190810160405280929190818152602001828054600181600116156101000203166002900480156137975780601f1061376c57610100808354040283529160200191613797565b820191906000526020600020905b81548152906001019060200180831161377a57829003601f168201915b50505050509450838054600181600116156101000203166002900480601f0160208091040260200160405190810160405280929190818152602001828054600181600116156101000203166002900480156138335780601f1061380857610100808354040283529160200191613833565b820191906000526020600020905b81548152906001019060200180831161381657829003601f168201915b50505050509350828054600181600116156101000203166002900480601f0160208091040260200160405190810160405280929190818152602001828054600181600116156101000203166002900480156138cf5780601f106138a4576101008083540402835291602001916138cf565b820191906000526020600020905b8154815290600101906020018083116138b257829003601f168201915b50505050509250818054600181600116156101000203166002900480601f01602080910402602001604051908101604052809291908181526020018280546001816001161561010002031660029004801561396b5780601f106139405761010080835404028352916020019161396b565b820191906000526020600020905b81548152906001019060200180831161394e57829003601f168201915b50505050509150808054600181600116156101000203166002900480601f016020809104026020016040519081016040528092919081815260200182805460018160011615610100020316600290048015613a075780601f106139dc57610100808354040283529160200191613a07565b820191906000526020600020905b8154815290600101906020018083116139ea57829003601f168201915b505050505090509450945094509450945091939590929450565b80600183604051613a32919061465d565b9081526020016040518091039020601d019080519060200190613a56929190613afc565b505050565b60405180606001604052806060815260200160608152602001606081525090565b828054600181600116156101000203166002900490600052602060002090601f016020900481019282601f10613abd57805160ff1916838001178555613aeb565b82800160010185558215613aeb579182015b82811115613aea578251825591602001919060010190613acf565b5b509050613af89190613c97565b5090565b828054600181600116156101000203166002900490600052602060002090601f016020900481019282601f10613b3d57805160ff1916838001178555613b6b565b82800160010185558215613b6b579182015b82811115613b6a578251825591602001919060010190613b4f565b5b509050613b789190613c97565b5090565b6040518060a0016040528060608152602001606081526020016060815260200160608152602001606081525090565b60405180610100016040528060608152602001606081526020016060815260200160608152602001606081526020016060815260200160608152602001606081525090565b604051806101400160405280606081526020016060815260200160608152602001606081526020016060815260200160608152602001606081526020016060815260200160608152602001606081525090565b6040518060c00160405280613c56613cbc565b8152602001613c63613cf3565b8152602001613c70613d38565b8152602001613c7d613d8b565b8152602001613c8a613dba565b8152602001606081525090565b613cb991905b80821115613cb5576000816000905550600101613c9d565b5090565b90565b6040518060600160405280600073ffffffffffffffffffffffffffffffffffffffff16815260200160608152602001606081525090565b60405180610100016040528060608152602001606081526020016060815260200160608152602001606081526020016060815260200160608152602001606081525090565b604051806101400160405280606081526020016060815260200160608152602001606081526020016060815260200160608152602001606081526020016060815260200160608152602001606081525090565b6040518060a0016040528060608152602001606081526020016060815260200160608152602001606081525090565b60405180606001604052806060815260200160608152602001606081525090565b600081359050613dea81614ad9565b92915050565b600082601f830112613e0157600080fd5b8135613e14613e0f826149ac565b61497f565b91508082526020830160208301858383011115613e3057600080fd5b613e3b838284614a86565b50505092915050565b600060208284031215613e5657600080fd5b600082013567ffffffffffffffff811115613e7057600080fd5b613e7c84828501613df0565b91505092915050565b60008060408385031215613e9857600080fd5b600083013567ffffffffffffffff811115613eb257600080fd5b613ebe85828601613df0565b925050602083013567ffffffffffffffff811115613edb57600080fd5b613ee785828601613df0565b9150509250929050565b600080600060608486031215613f0657600080fd5b600084013567ffffffffffffffff811115613f2057600080fd5b613f2c86828701613df0565b935050602084013567ffffffffffffffff811115613f4957600080fd5b613f5586828701613df0565b9250506040613f6686828701613ddb565b9150509250925092565b60008060008060808587031215613f8657600080fd5b600085013567ffffffffffffffff811115613fa057600080fd5b613fac87828801613df0565b945050602085013567ffffffffffffffff811115613fc957600080fd5b613fd587828801613df0565b935050604085013567ffffffffffffffff811115613ff257600080fd5b613ffe87828801613df0565b925050606085013567ffffffffffffffff81111561401b57600080fd5b61402787828801613df0565b91505092959194509250565b60008060008060008060c0878903121561404c57600080fd5b600087013567ffffffffffffffff81111561406657600080fd5b61407289828a01613df0565b965050602087013567ffffffffffffffff81111561408f57600080fd5b61409b89828a01613df0565b955050604087013567ffffffffffffffff8111156140b857600080fd5b6140c489828a01613df0565b945050606087013567ffffffffffffffff8111156140e157600080fd5b6140ed89828a01613df0565b935050608087013567ffffffffffffffff81111561410a57600080fd5b61411689828a01613df0565b92505060a087013567ffffffffffffffff81111561413357600080fd5b61413f89828a01613df0565b9150509295509295509295565b60008060008060008060008060006101208a8c03121561416b57600080fd5b60008a013567ffffffffffffffff81111561418557600080fd5b6141918c828d01613df0565b99505060208a013567ffffffffffffffff8111156141ae57600080fd5b6141ba8c828d01613df0565b98505060408a013567ffffffffffffffff8111156141d757600080fd5b6141e38c828d01613df0565b97505060608a013567ffffffffffffffff81111561420057600080fd5b61420c8c828d01613df0565b96505060808a013567ffffffffffffffff81111561422957600080fd5b6142358c828d01613df0565b95505060a08a013567ffffffffffffffff81111561425257600080fd5b61425e8c828d01613df0565b94505060c08a013567ffffffffffffffff81111561427b57600080fd5b6142878c828d01613df0565b93505060e08a013567ffffffffffffffff8111156142a457600080fd5b6142b08c828d01613df0565b9250506101008a013567ffffffffffffffff8111156142ce57600080fd5b6142da8c828d01613df0565b9150509295985092959850929598565b60008060008060008060008060008060006101608c8e03121561430c57600080fd5b60008c013567ffffffffffffffff81111561432657600080fd5b6143328e828f01613df0565b9b505060208c013567ffffffffffffffff81111561434f57600080fd5b61435b8e828f01613df0565b9a505060408c013567ffffffffffffffff81111561437857600080fd5b6143848e828f01613df0565b99505060608c013567ffffffffffffffff8111156143a157600080fd5b6143ad8e828f01613df0565b98505060808c013567ffffffffffffffff8111156143ca57600080fd5b6143d68e828f01613df0565b97505060a08c013567ffffffffffffffff8111156143f357600080fd5b6143ff8e828f01613df0565b96505060c08c013567ffffffffffffffff81111561441c57600080fd5b6144288e828f01613df0565b95505060e08c013567ffffffffffffffff81111561444557600080fd5b6144518e828f01613df0565b9450506101008c013567ffffffffffffffff81111561446f57600080fd5b61447b8e828f01613df0565b9350506101208c013567ffffffffffffffff81111561449957600080fd5b6144a58e828f01613df0565b9250506101408c013567ffffffffffffffff8111156144c357600080fd5b6144cf8e828f01613df0565b9150509295989b509295989b9093969950565b60006144ee83836145e4565b905092915050565b6144ff81614a54565b82525050565b6000614510826149e8565b61451a8185614a16565b93508360208202850161452c856149d8565b8060005b85811015614568578484038952815161454985826144e2565b945061455483614a09565b925060208a01995050600181019050614530565b50829750879550505050505092915050565b6000614585826149fe565b61458f8185614a38565b935061459f818560208601614a95565b6145a881614ac8565b840191505092915050565b60006145be826149fe565b6145c88185614a49565b93506145d8818560208601614a95565b80840191505092915050565b60006145ef826149f3565b6145f98185614a27565b9350614609818560208601614a95565b61461281614ac8565b840191505092915050565b600061462a601583614a38565b91507f54657374494420616c72656164792065786973747300000000000000000000006000830152602082019050919050565b600061466982846145b3565b915081905092915050565b600060a08201905061468960008301886144f6565b818103602083015261469b818761457a565b905081810360408301526146af818661457a565b905081810360608301526146c3818561457a565b905081810360808301526146d7818461457a565b90509695505050505050565b600060208201905081810360008301526146fd8184614505565b905092915050565b6000606082019050818103600083015261471f818661457a565b90508181036020830152614733818561457a565b90508181036040830152614747818461457a565b9050949350505050565b600060a082019050818103600083015261476b818861457a565b9050818103602083015261477f818761457a565b90508181036040830152614793818661457a565b905081810360608301526147a7818561457a565b905081810360808301526147bb818461457a565b90509695505050505050565b60006101008201905081810360008301526147e2818b61457a565b905081810360208301526147f6818a61457a565b9050818103604083015261480a818961457a565b9050818103606083015261481e818861457a565b90508181036080830152614832818761457a565b905081810360a0830152614846818661457a565b905081810360c083015261485a818561457a565b905081810360e083015261486e818461457a565b90509998505050505050505050565b6000610140820190508181036000830152614898818d61457a565b905081810360208301526148ac818c61457a565b905081810360408301526148c0818b61457a565b905081810360608301526148d4818a61457a565b905081810360808301526148e8818961457a565b905081810360a08301526148fc818861457a565b905081810360c0830152614910818761457a565b905081810360e0830152614924818661457a565b9050818103610100830152614939818561457a565b905081810361012083015261494e818461457a565b90509b9a5050505050505050505050565b600060208201905081810360008301526149788161461d565b9050919050565b6000604051905081810181811067ffffffffffffffff821117156149a257600080fd5b8060405250919050565b600067ffffffffffffffff8211156149c357600080fd5b601f19601f8301169050602081019050919050565b6000819050602082019050919050565b600081519050919050565b600081519050919050565b600081519050919050565b6000602082019050919050565b600082825260208201905092915050565b600082825260208201905092915050565b600082825260208201905092915050565b600081905092915050565b6000614a5f82614a66565b9050919050565b600073ffffffffffffffffffffffffffffffffffffffff82169050919050565b82818337600083830152505050565b60005b83811015614ab3578082015181840152602081019050614a98565b83811115614ac2576000848401525b50505050565b6000601f19601f8301169050919050565b614ae281614a54565b8114614aed57600080fd5b5056fea365627a7a72315820d1282aa342d423da2f4913073ee3ca69e7a8499df1fd3ad4565162de39de66986c6578706572696d656e74616cf564736f6c63430005100040",
  "source": "// SPDX-License-Identifier: MIT\r\npragma solidity ^0.5.16;\r\npragma experimental ABIEncoderV2;\r\n\r\ncontract MentalHealth {\r\n    struct PatientCredentials {\r\n        address cryptoWalletAddress;\r\n        string healthID;\r\n        string testID;\r\n    }\r\n\r\n    struct mhtChildhoodDetails {\r\n        string questionOne;\r\n        string questionTwo;\r\n        string questionThree;\r\n        string questionFour;\r\n        string questionFive;\r\n        string questionSix;\r\n        string questionSeven;\r\n        string score;\r\n    }\r\n\r\n    struct mhtPHQ9Details {\r\n        string questionOne;\r\n        string questionTwo;\r\n        string questionThree;\r\n        string questionFour;\r\n        string questionFive;\r\n        string questionSix;\r\n        string questionSeven;\r\n        string questionEight;\r\n        string questionNine;\r\n        string score;\r\n    }\r\n\r\n    struct SentimentDetails {\r\n        string textSentiment;\r\n        string audioHash;\r\n        string sentimentOne;\r\n        string sentimentTwo;\r\n        string score;\r\n    }\r\n\r\n    struct VideoAnalysis {\r\n        string totalBlinkCount;\r\n        string blinkPerMinute;\r\n        string cvScore;\r\n    }\r\n\r\n    struct PatientMHTest {\r\n        PatientCredentials credentials;\r\n        mhtChildhoodDetails mhtcd;\r\n        mhtPHQ9Details mhtphqDetails;\r\n        SentimentDetails sentimentDetails;\r\n        VideoAnalysis videoDetails;\r\n        string finalScore;\r\n    }\r\n\r\n    mapping(string => string[]) private healthIDToTestIDs;\r\n    mapping(string => PatientMHTest) private testIDToPatientTest;\r\n\r\n    function initializePatientMHTest( string memory _healthID, string memory _testID, address _cryptoWalletAddress ) public {\r\n        require(bytes(testIDToPatientTest[_testID].credentials.testID).length == 0, \"TestID already exists\");\r\n\r\n        healthIDToTestIDs[_healthID].push(_testID);\r\n\r\n        testIDToPatientTest[_testID] = PatientMHTest({\r\n            credentials: PatientCredentials({\r\n                healthID: _healthID,\r\n                testID: _testID,\r\n                cryptoWalletAddress: _cryptoWalletAddress\r\n            }),\r\n            mhtcd: mhtChildhoodDetails(\"\", \"\", \"\", \"\", \"\", \"\", \"\", \"\"),\r\n            mhtphqDetails: mhtPHQ9Details(\"\", \"\", \"\", \"\", \"\", \"\", \"\", \"\", \"\", \"\"),\r\n            sentimentDetails: SentimentDetails(\"\", \"\", \"\", \"\", \"\"),\r\n            videoDetails: VideoAnalysis(\"\", \"\", \"\"),\r\n            finalScore: \"\"\r\n        });\r\n    }\r\n\r\n    function initializeChildhoodDetails( string memory _testID, string memory _questionOne, string memory _questionTwo, string memory _questionThree, string memory _questionFour, string memory _questionFive,string memory _questionSix, string memory _questionSeven, string memory _score ) public {\r\n        mhtChildhoodDetails memory mhtcd = mhtChildhoodDetails({\r\n            questionOne: _questionOne,\r\n            questionTwo: _questionTwo,\r\n            questionThree: _questionThree,\r\n            questionFour: _questionFour,\r\n            questionFive: _questionFive,\r\n            questionSix: _questionSix,\r\n            questionSeven: _questionSeven,\r\n            score: _score\r\n        });\r\n\r\n        testIDToPatientTest[_testID].mhtcd = mhtcd;\r\n    }\r\n\r\n    function initializePHQ9Details( string memory _testID, string memory _questionOne, string memory _questionTwo, string memory _questionThree, string memory _questionFour, string memory _questionFive, string memory _questionSix, string memory _questionSeven, string memory _questionEight, string memory _questionNine, string memory _score ) public {\r\n        mhtPHQ9Details memory mhtphqDetails = mhtPHQ9Details({\r\n            questionOne: _questionOne,\r\n            questionTwo: _questionTwo,\r\n            questionThree: _questionThree,\r\n            questionFour: _questionFour,\r\n            questionFive: _questionFive,\r\n            questionSix: _questionSix,\r\n            questionSeven: _questionSeven,\r\n            questionEight: _questionEight,\r\n            questionNine: _questionNine,\r\n            score: _score\r\n        });\r\n\r\n        testIDToPatientTest[_testID].mhtphqDetails = mhtphqDetails;\r\n    }\r\n\r\n    function initializeSentimentDetails( string memory _testID, string memory _text, string memory _hash, string memory _sentimentOne, string memory _sentimentTwo, string memory _score ) public {\r\n        SentimentDetails memory sentimentDetails = SentimentDetails({\r\n            textSentiment: _text,\r\n            audioHash: _hash,\r\n            sentimentOne: _sentimentOne,\r\n            sentimentTwo: _sentimentTwo,\r\n            score: _score\r\n        });\r\n\r\n        testIDToPatientTest[_testID].sentimentDetails = sentimentDetails;\r\n    }\r\n\r\n    function initializeEmotionDetails( string memory _testID, string memory _totalBlink, string memory _blinkPerMinute, string memory _cvScore) public {\r\n        VideoAnalysis memory EmotionalDetails = VideoAnalysis({\r\n            totalBlinkCount: _totalBlink,\r\n            blinkPerMinute: _blinkPerMinute,\r\n            cvScore: _cvScore\r\n        });\r\n\r\n        testIDToPatientTest[_testID].videoDetails = EmotionalDetails;\r\n    }\r\n\r\n    function setFinalScore(string memory _testID, string memory _score) public {\r\n        testIDToPatientTest[_testID].finalScore = _score;\r\n    }\r\n\r\n    function getAllTestIDs(string memory _healthID)  public view  returns (string[] memory _testIDs)  {\r\n        return healthIDToTestIDs[_healthID];\r\n    }\r\n\r\n    function getChildhoodDetails(string memory _testID)  public view  returns ( string memory _questionOne, string memory _questionTwo, string memory _questionThree, string memory _questionFour, string memory _questionFive, string memory _questionSix, string memory _questionSeven, string memory _score ) {\r\n        mhtChildhoodDetails memory details = testIDToPatientTest[_testID].mhtcd;\r\n        return (\r\n            details.questionOne,\r\n            details.questionTwo,\r\n            details.questionThree,\r\n            details.questionFour,\r\n            details.questionFive,\r\n            details.questionSix,\r\n            details.questionSeven,\r\n            details.score\r\n        );\r\n    }\r\n\r\n    function getPHQ9Details(string memory _testID)  public view  returns ( string memory _questionOne, string memory _questionTwo, string memory _questionThree, string memory _questionFour, string memory _questionFive, string memory _questionSix, string memory _questionSeven, string memory _questionEight, string memory _questionNine, string memory _score )  {\r\n        mhtPHQ9Details memory details = testIDToPatientTest[_testID].mhtphqDetails;\r\n        return (\r\n            details.questionOne,\r\n            details.questionTwo,\r\n            details.questionThree,\r\n            details.questionFour,\r\n            details.questionFive,\r\n            details.questionSix,\r\n            details.questionSeven,\r\n            details.questionEight,\r\n            details.questionNine,\r\n            details.score\r\n        );\r\n    }\r\n\r\n    function getSentimentDetails(string memory _testID)  public view  returns ( string memory _textSentiment, string memory _audioHash, string memory _sentimentOne, string memory _sentimentTwo, string memory _score ) {\r\n        SentimentDetails memory details = testIDToPatientTest[_testID].sentimentDetails;\r\n        return (\r\n            details.textSentiment,\r\n            details.audioHash,\r\n            details.sentimentOne,\r\n            details.sentimentTwo,\r\n            details.score\r\n        );\r\n    }\r\n\r\n    function getEmotionDetails(string memory _testID) public view returns (string memory _blinkCount, string memory _blinkPerMinute, string memory _cvScore){\r\n        VideoAnalysis memory vanalysis = testIDToPatientTest[_testID].videoDetails;\r\n        return (\r\n            vanalysis.totalBlinkCount,\r\n            vanalysis.blinkPerMinute,\r\n            vanalysis.cvScore\r\n        );\r\n    }\r\n\r\n    function getAllScores(string memory _testID)  public view  returns (string memory _historyScore, string memory _phq9Score, string memory _sentimentalScore, string memory _videoScore, string memory _finalScore) {\r\n        return (\r\n            testIDToPatientTest[_testID].mhtcd.score,\r\n            testIDToPatientTest[_testID].mhtphqDetails.score,\r\n            testIDToPatientTest[_testID].sentimentDetails.score,\r\n            testIDToPatientTest[_testID].videoDetails.cvScore,\r\n            testIDToPatientTest[_testID].finalScore\r\n        );\r\n    }\r\n\r\n    function getCompleteTestDetails(string memory _testID)  public view  returns (address _cryptoWalletAddress,string memory _healthID,string memory _childhoodScore,string memory _phq9Score,string memory _sentimentalScore )  {\r\n        PatientMHTest memory testDetails = testIDToPatientTest[_testID];\r\n        return (\r\n            testDetails.credentials.cryptoWalletAddress,\r\n            testDetails.credentials.healthID,\r\n            testDetails.mhtcd.score,\r\n            testDetails.mhtphqDetails.score,\r\n            testDetails.sentimentDetails.score\r\n        );\r\n    }\r\n}",
  "sourcePath": "C:\\Users\\Aman\\Desktop\\PROJECTS\\WellWise\\src\\contracts\\MentalHealth.sol",
  "compiler": {
    "name": "solc",
    "version": "0.5.16+commit.9c3226ce.Emscripten.clang"
  },
  "schemaVersion": "3.4.16",
  "updatedAt": "2025-01-12T07:09:35.392Z",
  "networkType": "ethereum",
  "devdoc": {
    "methods": {}
  },
  "userdoc": {
    "methods": {}
  }
}