{
  "contractName": "MentalHealth",
  "abi": [
    {
      "constant": false,
      "inputs": [
        {
          "internalType": "string",
          "name": "_healthID",
          "type": "string"
        },
        {
          "internalType": "string",
          "name": "_testID",
          "type": "string"
        },
        {
          "internalType": "address",
          "name": "_cryptoWalletAddress",
          "type": "address"
        }
      ],
      "name": "initializePatientMHTest",
      "outputs": [],
      "payable": false,
      "stateMutability": "nonpayable",
      "type": "function"
    },
    {
      "constant": false,
      "inputs": [
        {
          "internalType": "string",
          "name": "_testID",
          "type": "string"
        },
        {
          "internalType": "string",
          "name": "_questionOne",
          "type": "string"
        },
        {
          "internalType": "string",
          "name": "_questionTwo",
          "type": "string"
        },
        {
          "internalType": "string",
          "name": "_questionThree",
          "type": "string"
        },
        {
          "internalType": "string",
          "name": "_questionFour",
          "type": "string"
        },
        {
          "internalType": "string",
          "name": "_questionFive",
          "type": "string"
        },
        {
          "internalType": "string",
          "name": "_questionSix",
          "type": "string"
        },
        {
          "internalType": "string",
          "name": "_questionSeven",
          "type": "string"
        },
        {
          "internalType": "string",
          "name": "_score",
          "type": "string"
        }
      ],
      "name": "initializeChildhoodDetails",
      "outputs": [],
      "payable": false,
      "stateMutability": "nonpayable",
      "type": "function"
    },
    {
      "constant": false,
      "inputs": [
        {
          "internalType": "string",
          "name": "_testID",
          "type": "string"
        },
        {
          "internalType": "string",
          "name": "_questionOne",
          "type": "string"
        },
        {
          "internalType": "string",
          "name": "_questionTwo",
          "type": "string"
        },
        {
          "internalType": "string",
          "name": "_questionThree",
          "type": "string"
        },
        {
          "internalType": "string",
          "name": "_questionFour",
          "type": "string"
        },
        {
          "internalType": "string",
          "name": "_questionFive",
          "type": "string"
        },
        {
          "internalType": "string",
          "name": "_questionSix",
          "type": "string"
        },
        {
          "internalType": "string",
          "name": "_questionSeven",
          "type": "string"
        },
        {
          "internalType": "string",
          "name": "_questionEight",
          "type": "string"
        },
        {
          "internalType": "string",
          "name": "_questionNine",
          "type": "string"
        },
        {
          "internalType": "string",
          "name": "_score",
          "type": "string"
        }
      ],
      "name": "initializePHQ9Details",
      "outputs": [],
      "payable": false,
      "stateMutability": "nonpayable",
      "type": "function"
    },
    {
      "constant": false,
      "inputs": [
        {
          "internalType": "string",
          "name": "_testID",
          "type": "string"
        },
        {
          "internalType": "string",
          "name": "_text",
          "type": "string"
        },
        {
          "internalType": "string",
          "name": "_hash",
          "type": "string"
        },
        {
          "internalType": "string",
          "name": "_sentimentOne",
          "type": "string"
        },
        {
          "internalType": "string",
          "name": "_sentimentTwo",
          "type": "string"
        },
        {
          "internalType": "string",
          "name": "_score",
          "type": "string"
        }
      ],
      "name": "initializeSentimentDetails",
      "outputs": [],
      "payable": false,
      "stateMutability": "nonpayable",
      "type": "function"
    },
    {
      "constant": false,
      "inputs": [
        {
          "internalType": "string",
          "name": "_testID",
          "type": "string"
        },
        {
          "internalType": "string",
          "name": "_totalBlink",
          "type": "string"
        },
        {
          "internalType": "string",
          "name": "_blinkPerMinute",
          "type": "string"
        },
        {
          "internalType": "string",
          "name": "_cvScore",
          "type": "string"
        }
      ],
      "name": "initializeEmotionDetails",
      "outputs": [],
      "payable": false,
      "stateMutability": "nonpayable",
      "type": "function"
    },
    {
      "constant": false,
      "inputs": [
        {
          "internalType": "string",
          "name": "_testID",
          "type": "string"
        },
        {
          "internalType": "string",
          "name": "_score",
          "type": "string"
        }
      ],
      "name": "setFinalScore",
      "outputs": [],
      "payable": false,
      "stateMutability": "nonpayable",
      "type": "function"
    },
    {
      "constant": true,
      "inputs": [
        {
          "internalType": "string",
          "name": "_healthID",
          "type": "string"
        }
      ],
      "name": "getAllTestIDs",
      "outputs": [
        {
          "internalType": "string[]",
          "name": "_testIDs",
          "type": "string[]"
        }
      ],
      "payable": false,
      "stateMutability": "view",
      "type": "function"
    },
    {
      "constant": true,
      "inputs": [
        {
          "internalType": "string",
          "name": "_testID",
          "type": "string"
        }
      ],
      "name": "getChildhoodDetails",
      "outputs": [
        {
          "internalType": "string",
          "name": "_questionOne",
          "type": "string"
        },
        {
          "internalType": "string",
          "name": "_questionTwo",
          "type": "string"
        },
        {
          "internalType": "string",
          "name": "_questionThree",
          "type": "string"
        },
        {
          "internalType": "string",
          "name": "_questionFour",
          "type": "string"
        },
        {
          "internalType": "string",
          "name": "_questionFive",
          "type": "string"
        },
        {
          "internalType": "string",
          "name": "_questionSix",
          "type": "string"
        },
        {
          "internalType": "string",
          "name": "_questionSeven",
          "type": "string"
        },
        {
          "internalType": "string",
          "name": "_score",
          "type": "string"
        }
      ],
      "payable": false,
      "stateMutability": "view",
      "type": "function"
    },
    {
      "constant": true,
      "inputs": [
        {
          "internalType": "string",
          "name": "_testID",
          "type": "string"
        }
      ],
      "name": "getPHQ9Details",
      "outputs": [
        {
          "internalType": "string",
          "name": "_questionOne",
          "type": "string"
        },
        {
          "internalType": "string",
          "name": "_questionTwo",
          "type": "string"
        },
        {
          "internalType": "string",
          "name": "_questionThree",
          "type": "string"
        },
        {
          "internalType": "string",
          "name": "_questionFour",
          "type": "string"
        },
        {
          "internalType": "string",
          "name": "_questionFive",
          "type": "string"
        },
        {
          "internalType": "string",
          "name": "_questionSix",
          "type": "string"
        },
        {
          "internalType": "string",
          "name": "_questionSeven",
          "type": "string"
        },
        {
          "internalType": "string",
          "name": "_questionEight",
          "type": "string"
        },
        {
          "internalType": "string",
          "name": "_questionNine",
          "type": "string"
        },
        {
          "internalType": "string",
          "name": "_score",
          "type": "string"
        }
      ],
      "payable": false,
      "stateMutability": "view",
      "type": "function"
    },
    {
      "constant": true,
      "inputs": [
        {
          "internalType": "string",
          "name": "_testID",
          "type": "string"
        }
      ],
      "name": "getSentimentDetails",
      "outputs": [
        {
          "internalType": "string",
          "name": "_textSentiment",
          "type": "string"
        },
        {
          "internalType": "string",
          "name": "_audioHash",
          "type": "string"
        },
        {
          "internalType": "string",
          "name": "_sentimentOne",
          "type": "string"
        },
        {
          "internalType": "string",
          "name": "_sentimentTwo",
          "type": "string"
        },
        {
          "internalType": "string",
          "name": "_score",
          "type": "string"
        }
      ],
      "payable": false,
      "stateMutability": "view",
      "type": "function"
    },
    {
      "constant": true,
      "inputs": [
        {
          "internalType": "string",
          "name": "_testID",
          "type": "string"
        }
      ],
      "name": "getEmotionDetails",
      "outputs": [
        {
          "internalType": "string",
          "name": "_blinkCount",
          "type": "string"
        },
        {
          "internalType": "string",
          "name": "_blinkPerMinute",
          "type": "string"
        },
        {
          "internalType": "string",
          "name": "_cvScore",
          "type": "string"
        }
      ],
      "payable": false,
      "stateMutability": "view",
      "type": "function"
    },
    {
      "constant": true,
      "inputs": [
        {
          "internalType": "string",
          "name": "_testID",
          "type": "string"
        }
      ],
      "name": "getAllScores",
      "outputs": [
        {
          "internalType": "string",
          "name": "_historyScore",
          "type": "string"
        },
        {
          "internalType": "string",
          "name": "_phq9Score",
          "type": "string"
        },
        {
          "internalType": "string",
          "name": "_sentimentalScore",
          "type": "string"
        },
        {
          "internalType": "string",
          "name": "_videoScore",
          "type": "string"
        },
        {
          "internalType": "string",
          "name": "_finalScore",
          "type": "string"
        }
      ],
      "payable": false,
      "stateMutability": "view",
      "type": "function"
    },
    {
      "constant": true,
      "inputs": [
        {
          "internalType": "string",
          "name": "_testID",
          "type": "string"
        }
      ],
      "name": "getFinalScore",
      "outputs": [
        {
          "internalType": "string",
          "name": "",
          "type": "string"
        }
      ],
      "payable": false,
      "stateMutability": "view",
      "type": "function"
    },
    {
      "constant": true,
      "inputs": [
        {
          "internalType": "string",
          "name": "_testID",
          "type": "string"
        }
      ],
      "name": "getmhtcdscore",
      "outputs": [
        {
          "internalType": "string",
          "name": "",
          "type": "string"
        }
      ],
      "payable": false,
      "stateMutability": "view",
      "type": "function"
    },
    {
      "constant": true,
      "inputs": [
        {
          "internalType": "string",
          "name": "_testID",
          "type": "string"
        }
      ],
      "name": "getmhtphqscore",
      "outputs": [
        {
          "internalType": "string",
          "name": "",
          "type": "string"
        }
      ],
      "payable": false,
      "stateMutability": "view",
      "type": "function"
    },
    {
      "constant": true,
      "inputs": [
        {
          "internalType": "string",
          "name": "_testID",
          "type": "string"
        }
      ],
      "name": "getSentimentScore",
      "outputs": [
        {
          "internalType": "string",
          "name": "",
          "type": "string"
        }
      ],
      "payable": false,
      "stateMutability": "view",
      "type": "function"
    },
    {
      "constant": true,
      "inputs": [
        {
          "internalType": "string",
          "name": "_testID",
          "type": "string"
        }
      ],
      "name": "getCompleteTestDetails",
      "outputs": [
        {
          "internalType": "address",
          "name": "_cryptoWalletAddress",
          "type": "address"
        },
        {
          "internalType": "string",
          "name": "_healthID",
          "type": "string"
        },
        {
          "internalType": "string",
          "name": "_childhoodScore",
          "type": "string"
        },
        {
          "internalType": "string",
          "name": "_phq9Score",
          "type": "string"
        },
        {
          "internalType": "string",
          "name": "_sentimentalScore",
          "type": "string"
        }
      ],
      "payable": false,
      "stateMutability": "view",
      "type": "function"
    }
  ],
  "bytecode": "0x608060405234801561001057600080fd5b50614f66806100206000396000f3fe608060405234801561001057600080fd5b506004361061010b5760003560e01c8063890d1164116100a2578063d34a2e4611610071578063d34a2e46146102f7578063d8a7436b1461032b578063f2f1ef281461035d578063fcc29b8e14610396578063fff526fe146103ca5761010b565b8063890d1164146102585780638bc735831461028f578063b8b9369e146102ab578063ba6acaec146102c75761010b565b806326fc3b42116100de57806326fc3b42146101945780632f5cb220146101c45780636adca531146101f457806371330671146102245761010b565b8063139fbc571461011057806318ccc2f0146101405780631f15ea941461015c578063201b986b14610178575b600080fd5b61012a60048036036101259190810190614255565b6103e6565b6040516101379190614b16565b60405180910390f35b61015a60048036036101559190810190614381565b6104ac565b005b61017660048036036101719190810190614302565b610554565b005b610192600480360361018d9190810190614444565b610cc9565b005b6101ae60048036036101a99190810190614255565b610db9565b6040516101bb9190614b16565b60405180910390f35b6101de60048036036101d99190810190614255565b610e7f565b6040516101eb9190614af4565b60405180910390f35b61020e60048036036102099190810190614255565b610f86565b60405161021b9190614b16565b60405180910390f35b61023e60048036036102399190810190614255565b611049565b60405161024f959493929190614b84565b60405180910390f35b610272600480360361026d9190810190614255565b6113ed565b604051610286989796959493929190614bfa565b60405180910390f35b6102a960048036036102a4919081019061455d565b61199c565b005b6102c560048036036102c091908101906146fb565b611af9565b005b6102e160048036036102dc9190810190614255565b611ca0565b6040516102ee9190614b16565b60405180910390f35b610311600480360361030c9190810190614255565b611d66565b604051610322959493929190614a85565b60405180910390f35b61034560048036036103409190810190614255565b613105565b60405161035493929190614b38565b60405180910390f35b61037760048036036103729190810190614255565b61334c565b60405161038d9a99989796959493929190614cb0565b60405180910390f35b6103b060048036036103ab9190810190614255565b613a5a565b6040516103c1959493929190614b84565b60405180910390f35b6103e460048036036103df9190810190614296565b613e32565b005b60606001826040516103f89190614a6e565b90815260200160405180910390206015016004018054600181600116156101000203166002900480601f0160208091040260200160405190810160405280929190818152602001828054600181600116156101000203166002900480156104a05780601f10610475576101008083540402835291602001916104a0565b820191906000526020600020905b81548152906001019060200180831161048357829003601f168201915b50505050509050919050565b6104b4613e6c565b6040518060600160405280858152602001848152602001838152509050806001866040516104e29190614a6e565b9081526020016040518091039020601a01600082015181600001908051906020019061050f929190613e8d565b50602082015181600101908051906020019061052c929190613e8d565b506040820151816002019080519060200190610549929190613e8d565b509050505050505050565b60006001836040516105669190614a6e565b9081526020016040518091039020600001600201805460018160011615610100020316600290049050146105cf576040517f08c379a00000000000000000000000000000000000000000000000000000000081526004016105c690614d92565b60405180910390fd5b6000836040516105df9190614a6e565b9081526020016040518091039020829080600181540180825580915050906001820390600052602060002001600090919290919091509080519060200190610628929190613f0d565b50506040518060c0016040528060405180606001604052808473ffffffffffffffffffffffffffffffffffffffff1681526020018681526020018581525081526020016040518061010001604052806040518060200160405280600081525081526020016040518060200160405280600081525081526020016040518060200160405280600081525081526020016040518060200160405280600081525081526020016040518060200160405280600081525081526020016040518060200160405280600081525081526020016040518060200160405280600081525081526020016040518060200160405280600081525081525081526020016040518061014001604052806040518060200160405280600081525081526020016040518060200160405280600081525081526020016040518060200160405280600081525081526020016040518060200160405280600081525081526020016040518060200160405280600081525081526020016040518060200160405280600081525081526020016040518060200160405280600081525081526020016040518060200160405280600081525081526020016040518060200160405280600081525081526020016040518060200160405280600081525081525081526020016040518060a001604052806040518060200160405280600081525081526020016040518060200160405280600081525081526020016040518060200160405280600081525081526020016040518060200160405280600081525081526020016040518060200160405280600081525081525081526020016040518060600160405280604051806020016040528060008152508152602001604051806020016040528060008152508152602001604051806020016040528060008152508152508152602001604051806020016040528060008152508152506001836040516108ea9190614a6e565b908152602001604051809103902060008201518160000160008201518160000160006101000a81548173ffffffffffffffffffffffffffffffffffffffff021916908373ffffffffffffffffffffffffffffffffffffffff1602179055506020820151816001019080519060200190610964929190613e8d565b506040820151816002019080519060200190610981929190613e8d565b50505060208201518160030160008201518160000190805190602001906109a9929190613e8d565b5060208201518160010190805190602001906109c6929190613e8d565b5060408201518160020190805190602001906109e3929190613e8d565b506060820151816003019080519060200190610a00929190613e8d565b506080820151816004019080519060200190610a1d929190613e8d565b5060a0820151816005019080519060200190610a3a929190613e8d565b5060c0820151816006019080519060200190610a57929190613e8d565b5060e0820151816007019080519060200190610a74929190613e8d565b505050604082015181600b016000820151816000019080519060200190610a9c929190613e8d565b506020820151816001019080519060200190610ab9929190613e8d565b506040820151816002019080519060200190610ad6929190613e8d565b506060820151816003019080519060200190610af3929190613e8d565b506080820151816004019080519060200190610b10929190613e8d565b5060a0820151816005019080519060200190610b2d929190613e8d565b5060c0820151816006019080519060200190610b4a929190613e8d565b5060e0820151816007019080519060200190610b67929190613e8d565b50610100820151816008019080519060200190610b85929190613e8d565b50610120820151816009019080519060200190610ba3929190613e8d565b5050506060820151816015016000820151816000019080519060200190610bcb929190613e8d565b506020820151816001019080519060200190610be8929190613e8d565b506040820151816002019080519060200190610c05929190613e8d565b506060820151816003019080519060200190610c22929190613e8d565b506080820151816004019080519060200190610c3f929190613e8d565b505050608082015181601a016000820151816000019080519060200190610c67929190613e8d565b506020820151816001019080519060200190610c84929190613e8d565b506040820151816002019080519060200190610ca1929190613e8d565b50505060a082015181601d019080519060200190610cc0929190613e8d565b50905050505050565b610cd1613f8d565b6040518060a0016040528087815260200186815260200185815260200184815260200183815250905080600188604051610d0b9190614a6e565b90815260200160405180910390206015016000820151816000019080519060200190610d38929190613e8d565b506020820151816001019080519060200190610d55929190613e8d565b506040820151816002019080519060200190610d72929190613e8d565b506060820151816003019080519060200190610d8f929190613e8d565b506080820151816004019080519060200190610dac929190613e8d565b5090505050505050505050565b6060600182604051610dcb9190614a6e565b9081526020016040518091039020600b016009018054600181600116156101000203166002900480601f016020809104026020016040519081016040528092919081815260200182805460018160011615610100020316600290048015610e735780601f10610e4857610100808354040283529160200191610e73565b820191906000526020600020905b815481529060010190602001808311610e5657829003601f168201915b50505050509050919050565b6060600082604051610e919190614a6e565b9081526020016040518091039020805480602002602001604051908101604052809291908181526020016000905b82821015610f7b578382906000526020600020018054600181600116156101000203166002900480601f016020809104026020016040519081016040528092919081815260200182805460018160011615610100020316600290048015610f675780601f10610f3c57610100808354040283529160200191610f67565b820191906000526020600020905b815481529060010190602001808311610f4a57829003601f168201915b505050505081526020019060010190610ebf565b505050509050919050565b6060600182604051610f989190614a6e565b9081526020016040518091039020601d018054600181600116156101000203166002900480601f01602080910402602001604051908101604052809291908181526020018280546001816001161561010002031660029004801561103d5780601f106110125761010080835404028352916020019161103d565b820191906000526020600020905b81548152906001019060200180831161102057829003601f168201915b50505050509050919050565b6060806060806060611059613f8d565b6001876040516110699190614a6e565b90815260200160405180910390206015016040518060a0016040529081600082018054600181600116156101000203166002900480601f01602080910402602001604051908101604052809291908181526020018280546001816001161561010002031660029004801561111e5780601f106110f35761010080835404028352916020019161111e565b820191906000526020600020905b81548152906001019060200180831161110157829003601f168201915b50505050508152602001600182018054600181600116156101000203166002900480601f0160208091040260200160405190810160405280929190818152602001828054600181600116156101000203166002900480156111c05780601f10611195576101008083540402835291602001916111c0565b820191906000526020600020905b8154815290600101906020018083116111a357829003601f168201915b50505050508152602001600282018054600181600116156101000203166002900480601f0160208091040260200160405190810160405280929190818152602001828054600181600116156101000203166002900480156112625780601f1061123757610100808354040283529160200191611262565b820191906000526020600020905b81548152906001019060200180831161124557829003601f168201915b50505050508152602001600382018054600181600116156101000203166002900480601f0160208091040260200160405190810160405280929190818152602001828054600181600116156101000203166002900480156113045780601f106112d957610100808354040283529160200191611304565b820191906000526020600020905b8154815290600101906020018083116112e757829003601f168201915b50505050508152602001600482018054600181600116156101000203166002900480601f0160208091040260200160405190810160405280929190818152602001828054600181600116156101000203166002900480156113a65780601f1061137b576101008083540402835291602001916113a6565b820191906000526020600020905b81548152906001019060200180831161138957829003601f168201915b505050505081525050905080600001518160200151826040015183606001518460800151849450839350829250819150809050955095509550955095505091939590929450565b606080606080606080606080611401613fbc565b60018a6040516114119190614a6e565b908152602001604051809103902060030160405180610100016040529081600082018054600181600116156101000203166002900480601f0160208091040260200160405190810160405280929190818152602001828054600181600116156101000203166002900480156114c75780601f1061149c576101008083540402835291602001916114c7565b820191906000526020600020905b8154815290600101906020018083116114aa57829003601f168201915b50505050508152602001600182018054600181600116156101000203166002900480601f0160208091040260200160405190810160405280929190818152602001828054600181600116156101000203166002900480156115695780601f1061153e57610100808354040283529160200191611569565b820191906000526020600020905b81548152906001019060200180831161154c57829003601f168201915b50505050508152602001600282018054600181600116156101000203166002900480601f01602080910402602001604051908101604052809291908181526020018280546001816001161561010002031660029004801561160b5780601f106115e05761010080835404028352916020019161160b565b820191906000526020600020905b8154815290600101906020018083116115ee57829003601f168201915b50505050508152602001600382018054600181600116156101000203166002900480601f0160208091040260200160405190810160405280929190818152602001828054600181600116156101000203166002900480156116ad5780601f10611682576101008083540402835291602001916116ad565b820191906000526020600020905b81548152906001019060200180831161169057829003601f168201915b50505050508152602001600482018054600181600116156101000203166002900480601f01602080910402602001604051908101604052809291908181526020018280546001816001161561010002031660029004801561174f5780601f106117245761010080835404028352916020019161174f565b820191906000526020600020905b81548152906001019060200180831161173257829003601f168201915b50505050508152602001600582018054600181600116156101000203166002900480601f0160208091040260200160405190810160405280929190818152602001828054600181600116156101000203166002900480156117f15780601f106117c6576101008083540402835291602001916117f1565b820191906000526020600020905b8154815290600101906020018083116117d457829003601f168201915b50505050508152602001600682018054600181600116156101000203166002900480601f0160208091040260200160405190810160405280929190818152602001828054600181600116156101000203166002900480156118935780601f1061186857610100808354040283529160200191611893565b820191906000526020600020905b81548152906001019060200180831161187657829003601f168201915b50505050508152602001600782018054600181600116156101000203166002900480601f0160208091040260200160405190810160405280929190818152602001828054600181600116156101000203166002900480156119355780601f1061190a57610100808354040283529160200191611935565b820191906000526020600020905b81548152906001019060200180831161191857829003601f168201915b5050505050815250509050806000015181602001518260400151836060015184608001518560a001518660c001518760e001518797508696508595508494508393508292508191508090509850985098509850985098509850985050919395975091939597565b6119a4613fbc565b6040518061010001604052808a81526020018981526020018881526020018781526020018681526020018581526020018481526020018381525090508060018b6040516119f19190614a6e565b90815260200160405180910390206003016000820151816000019080519060200190611a1e929190613e8d565b506020820151816001019080519060200190611a3b929190613e8d565b506040820151816002019080519060200190611a58929190613e8d565b506060820151816003019080519060200190611a75929190613e8d565b506080820151816004019080519060200190611a92929190613e8d565b5060a0820151816005019080519060200190611aaf929190613e8d565b5060c0820151816006019080519060200190611acc929190613e8d565b5060e0820151816007019080519060200190611ae9929190613e8d565b5090505050505050505050505050565b611b01614001565b6040518061014001604052808c81526020018b81526020018a81526020018981526020018881526020018781526020018681526020018581526020018481526020018381525090508060018d604051611b5a9190614a6e565b9081526020016040518091039020600b016000820151816000019080519060200190611b87929190613e8d565b506020820151816001019080519060200190611ba4929190613e8d565b506040820151816002019080519060200190611bc1929190613e8d565b506060820151816003019080519060200190611bde929190613e8d565b506080820151816004019080519060200190611bfb929190613e8d565b5060a0820151816005019080519060200190611c18929190613e8d565b5060c0820151816006019080519060200190611c35929190613e8d565b5060e0820151816007019080519060200190611c52929190613e8d565b50610100820151816008019080519060200190611c70929190613e8d565b50610120820151816009019080519060200190611c8e929190613e8d565b50905050505050505050505050505050565b6060600182604051611cb29190614a6e565b90815260200160405180910390206003016007018054600181600116156101000203166002900480601f016020809104026020016040519081016040528092919081815260200182805460018160011615610100020316600290048015611d5a5780601f10611d2f57610100808354040283529160200191611d5a565b820191906000526020600020905b815481529060010190602001808311611d3d57829003601f168201915b50505050509050919050565b6000606080606080611d76614054565b600187604051611d869190614a6e565b90815260200160405180910390206040518060c0016040529081600082016040518060600160405290816000820160009054906101000a900473ffffffffffffffffffffffffffffffffffffffff1673ffffffffffffffffffffffffffffffffffffffff1673ffffffffffffffffffffffffffffffffffffffff168152602001600182018054600181600116156101000203166002900480601f016020809104026020016040519081016040528092919081815260200182805460018160011615610100020316600290048015611e9e5780601f10611e7357610100808354040283529160200191611e9e565b820191906000526020600020905b815481529060010190602001808311611e8157829003601f168201915b50505050508152602001600282018054600181600116156101000203166002900480601f016020809104026020016040519081016040528092919081815260200182805460018160011615610100020316600290048015611f405780601f10611f1557610100808354040283529160200191611f40565b820191906000526020600020905b815481529060010190602001808311611f2357829003601f168201915b50505050508152505081526020016003820160405180610100016040529081600082018054600181600116156101000203166002900480601f016020809104026020016040519081016040528092919081815260200182805460018160011615610100020316600290048015611ff75780601f10611fcc57610100808354040283529160200191611ff7565b820191906000526020600020905b815481529060010190602001808311611fda57829003601f168201915b50505050508152602001600182018054600181600116156101000203166002900480601f0160208091040260200160405190810160405280929190818152602001828054600181600116156101000203166002900480156120995780601f1061206e57610100808354040283529160200191612099565b820191906000526020600020905b81548152906001019060200180831161207c57829003601f168201915b50505050508152602001600282018054600181600116156101000203166002900480601f01602080910402602001604051908101604052809291908181526020018280546001816001161561010002031660029004801561213b5780601f106121105761010080835404028352916020019161213b565b820191906000526020600020905b81548152906001019060200180831161211e57829003601f168201915b50505050508152602001600382018054600181600116156101000203166002900480601f0160208091040260200160405190810160405280929190818152602001828054600181600116156101000203166002900480156121dd5780601f106121b2576101008083540402835291602001916121dd565b820191906000526020600020905b8154815290600101906020018083116121c057829003601f168201915b50505050508152602001600482018054600181600116156101000203166002900480601f01602080910402602001604051908101604052809291908181526020018280546001816001161561010002031660029004801561227f5780601f106122545761010080835404028352916020019161227f565b820191906000526020600020905b81548152906001019060200180831161226257829003601f168201915b50505050508152602001600582018054600181600116156101000203166002900480601f0160208091040260200160405190810160405280929190818152602001828054600181600116156101000203166002900480156123215780601f106122f657610100808354040283529160200191612321565b820191906000526020600020905b81548152906001019060200180831161230457829003601f168201915b50505050508152602001600682018054600181600116156101000203166002900480601f0160208091040260200160405190810160405280929190818152602001828054600181600116156101000203166002900480156123c35780601f10612398576101008083540402835291602001916123c3565b820191906000526020600020905b8154815290600101906020018083116123a657829003601f168201915b50505050508152602001600782018054600181600116156101000203166002900480601f0160208091040260200160405190810160405280929190818152602001828054600181600116156101000203166002900480156124655780601f1061243a57610100808354040283529160200191612465565b820191906000526020600020905b81548152906001019060200180831161244857829003601f168201915b5050505050815250508152602001600b820160405180610140016040529081600082018054600181600116156101000203166002900480601f01602080910402602001604051908101604052809291908181526020018280546001816001161561010002031660029004801561251c5780601f106124f15761010080835404028352916020019161251c565b820191906000526020600020905b8154815290600101906020018083116124ff57829003601f168201915b50505050508152602001600182018054600181600116156101000203166002900480601f0160208091040260200160405190810160405280929190818152602001828054600181600116156101000203166002900480156125be5780601f10612593576101008083540402835291602001916125be565b820191906000526020600020905b8154815290600101906020018083116125a157829003601f168201915b50505050508152602001600282018054600181600116156101000203166002900480601f0160208091040260200160405190810160405280929190818152602001828054600181600116156101000203166002900480156126605780601f1061263557610100808354040283529160200191612660565b820191906000526020600020905b81548152906001019060200180831161264357829003601f168201915b50505050508152602001600382018054600181600116156101000203166002900480601f0160208091040260200160405190810160405280929190818152602001828054600181600116156101000203166002900480156127025780601f106126d757610100808354040283529160200191612702565b820191906000526020600020905b8154815290600101906020018083116126e557829003601f168201915b50505050508152602001600482018054600181600116156101000203166002900480601f0160208091040260200160405190810160405280929190818152602001828054600181600116156101000203166002900480156127a45780601f10612779576101008083540402835291602001916127a4565b820191906000526020600020905b81548152906001019060200180831161278757829003601f168201915b50505050508152602001600582018054600181600116156101000203166002900480601f0160208091040260200160405190810160405280929190818152602001828054600181600116156101000203166002900480156128465780601f1061281b57610100808354040283529160200191612846565b820191906000526020600020905b81548152906001019060200180831161282957829003601f168201915b50505050508152602001600682018054600181600116156101000203166002900480601f0160208091040260200160405190810160405280929190818152602001828054600181600116156101000203166002900480156128e85780601f106128bd576101008083540402835291602001916128e8565b820191906000526020600020905b8154815290600101906020018083116128cb57829003601f168201915b50505050508152602001600782018054600181600116156101000203166002900480601f01602080910402602001604051908101604052809291908181526020018280546001816001161561010002031660029004801561298a5780601f1061295f5761010080835404028352916020019161298a565b820191906000526020600020905b81548152906001019060200180831161296d57829003601f168201915b50505050508152602001600882018054600181600116156101000203166002900480601f016020809104026020016040519081016040528092919081815260200182805460018160011615610100020316600290048015612a2c5780601f10612a0157610100808354040283529160200191612a2c565b820191906000526020600020905b815481529060010190602001808311612a0f57829003601f168201915b50505050508152602001600982018054600181600116156101000203166002900480601f016020809104026020016040519081016040528092919081815260200182805460018160011615610100020316600290048015612ace5780601f10612aa357610100808354040283529160200191612ace565b820191906000526020600020905b815481529060010190602001808311612ab157829003601f168201915b5050505050815250508152602001601582016040518060a0016040529081600082018054600181600116156101000203166002900480601f016020809104026020016040519081016040528092919081815260200182805460018160011615610100020316600290048015612b845780601f10612b5957610100808354040283529160200191612b84565b820191906000526020600020905b815481529060010190602001808311612b6757829003601f168201915b50505050508152602001600182018054600181600116156101000203166002900480601f016020809104026020016040519081016040528092919081815260200182805460018160011615610100020316600290048015612c265780601f10612bfb57610100808354040283529160200191612c26565b820191906000526020600020905b815481529060010190602001808311612c0957829003601f168201915b50505050508152602001600282018054600181600116156101000203166002900480601f016020809104026020016040519081016040528092919081815260200182805460018160011615610100020316600290048015612cc85780601f10612c9d57610100808354040283529160200191612cc8565b820191906000526020600020905b815481529060010190602001808311612cab57829003601f168201915b50505050508152602001600382018054600181600116156101000203166002900480601f016020809104026020016040519081016040528092919081815260200182805460018160011615610100020316600290048015612d6a5780601f10612d3f57610100808354040283529160200191612d6a565b820191906000526020600020905b815481529060010190602001808311612d4d57829003601f168201915b50505050508152602001600482018054600181600116156101000203166002900480601f016020809104026020016040519081016040528092919081815260200182805460018160011615610100020316600290048015612e0c5780601f10612de157610100808354040283529160200191612e0c565b820191906000526020600020905b815481529060010190602001808311612def57829003601f168201915b5050505050815250508152602001601a8201604051806060016040529081600082018054600181600116156101000203166002900480601f016020809104026020016040519081016040528092919081815260200182805460018160011615610100020316600290048015612ec25780601f10612e9757610100808354040283529160200191612ec2565b820191906000526020600020905b815481529060010190602001808311612ea557829003601f168201915b50505050508152602001600182018054600181600116156101000203166002900480601f016020809104026020016040519081016040528092919081815260200182805460018160011615610100020316600290048015612f645780601f10612f3957610100808354040283529160200191612f64565b820191906000526020600020905b815481529060010190602001808311612f4757829003601f168201915b50505050508152602001600282018054600181600116156101000203166002900480601f0160208091040260200160405190810160405280929190818152602001828054600181600116156101000203166002900480156130065780601f10612fdb57610100808354040283529160200191613006565b820191906000526020600020905b815481529060010190602001808311612fe957829003601f168201915b5050505050815250508152602001601d82018054600181600116156101000203166002900480601f0160208091040260200160405190810160405280929190818152602001828054600181600116156101000203166002900480156130ac5780601f10613081576101008083540402835291602001916130ac565b820191906000526020600020905b81548152906001019060200180831161308f57829003601f168201915b5050505050815250509050806000015160000151816000015160200151826020015160e0015183604001516101200151846060015160800151839350829250819150809050955095509550955095505091939590929450565b6060806060613112613e6c565b6001856040516131229190614a6e565b9081526020016040518091039020601a01604051806060016040529081600082018054600181600116156101000203166002900480601f0160208091040260200160405190810160405280929190818152602001828054600181600116156101000203166002900480156131d75780601f106131ac576101008083540402835291602001916131d7565b820191906000526020600020905b8154815290600101906020018083116131ba57829003601f168201915b50505050508152602001600182018054600181600116156101000203166002900480601f0160208091040260200160405190810160405280929190818152602001828054600181600116156101000203166002900480156132795780601f1061324e57610100808354040283529160200191613279565b820191906000526020600020905b81548152906001019060200180831161325c57829003601f168201915b50505050508152602001600282018054600181600116156101000203166002900480601f01602080910402602001604051908101604052809291908181526020018280546001816001161561010002031660029004801561331b5780601f106132f05761010080835404028352916020019161331b565b820191906000526020600020905b8154815290600101906020018083116132fe57829003601f168201915b5050505050815250509050806000015181602001518260400151829250819150809050935093509350509193909250565b606080606080606080606080606080613363614001565b60018c6040516133739190614a6e565b9081526020016040518091039020600b0160405180610140016040529081600082018054600181600116156101000203166002900480601f0160208091040260200160405190810160405280929190818152602001828054600181600116156101000203166002900480156134295780601f106133fe57610100808354040283529160200191613429565b820191906000526020600020905b81548152906001019060200180831161340c57829003601f168201915b50505050508152602001600182018054600181600116156101000203166002900480601f0160208091040260200160405190810160405280929190818152602001828054600181600116156101000203166002900480156134cb5780601f106134a0576101008083540402835291602001916134cb565b820191906000526020600020905b8154815290600101906020018083116134ae57829003601f168201915b50505050508152602001600282018054600181600116156101000203166002900480601f01602080910402602001604051908101604052809291908181526020018280546001816001161561010002031660029004801561356d5780601f106135425761010080835404028352916020019161356d565b820191906000526020600020905b81548152906001019060200180831161355057829003601f168201915b50505050508152602001600382018054600181600116156101000203166002900480601f01602080910402602001604051908101604052809291908181526020018280546001816001161561010002031660029004801561360f5780601f106135e45761010080835404028352916020019161360f565b820191906000526020600020905b8154815290600101906020018083116135f257829003601f168201915b50505050508152602001600482018054600181600116156101000203166002900480601f0160208091040260200160405190810160405280929190818152602001828054600181600116156101000203166002900480156136b15780601f10613686576101008083540402835291602001916136b1565b820191906000526020600020905b81548152906001019060200180831161369457829003601f168201915b50505050508152602001600582018054600181600116156101000203166002900480601f0160208091040260200160405190810160405280929190818152602001828054600181600116156101000203166002900480156137535780601f1061372857610100808354040283529160200191613753565b820191906000526020600020905b81548152906001019060200180831161373657829003601f168201915b50505050508152602001600682018054600181600116156101000203166002900480601f0160208091040260200160405190810160405280929190818152602001828054600181600116156101000203166002900480156137f55780601f106137ca576101008083540402835291602001916137f5565b820191906000526020600020905b8154815290600101906020018083116137d857829003601f168201915b50505050508152602001600782018054600181600116156101000203166002900480601f0160208091040260200160405190810160405280929190818152602001828054600181600116156101000203166002900480156138975780601f1061386c57610100808354040283529160200191613897565b820191906000526020600020905b81548152906001019060200180831161387a57829003601f168201915b50505050508152602001600882018054600181600116156101000203166002900480601f0160208091040260200160405190810160405280929190818152602001828054600181600116156101000203166002900480156139395780601f1061390e57610100808354040283529160200191613939565b820191906000526020600020905b81548152906001019060200180831161391c57829003601f168201915b50505050508152602001600982018054600181600116156101000203166002900480601f0160208091040260200160405190810160405280929190818152602001828054600181600116156101000203166002900480156139db5780601f106139b0576101008083540402835291602001916139db565b820191906000526020600020905b8154815290600101906020018083116139be57829003601f168201915b5050505050815250509050806000015181602001518260400151836060015184608001518560a001518660c001518760e001518861010001518961012001518999508898508797508696508595508494508393508292508191508090509a509a509a509a509a509a509a509a509a509a50509193959799509193959799565b6060806060806060600186604051613a729190614a6e565b9081526020016040518091039020600301600701600187604051613a969190614a6e565b9081526020016040518091039020600b01600901600188604051613aba9190614a6e565b9081526020016040518091039020601501600401600189604051613ade9190614a6e565b9081526020016040518091039020601a0160020160018a604051613b029190614a6e565b9081526020016040518091039020601d01848054600181600116156101000203166002900480601f016020809104026020016040519081016040528092919081815260200182805460018160011615610100020316600290048015613ba85780601f10613b7d57610100808354040283529160200191613ba8565b820191906000526020600020905b815481529060010190602001808311613b8b57829003601f168201915b50505050509450838054600181600116156101000203166002900480601f016020809104026020016040519081016040528092919081815260200182805460018160011615610100020316600290048015613c445780601f10613c1957610100808354040283529160200191613c44565b820191906000526020600020905b815481529060010190602001808311613c2757829003601f168201915b50505050509350828054600181600116156101000203166002900480601f016020809104026020016040519081016040528092919081815260200182805460018160011615610100020316600290048015613ce05780601f10613cb557610100808354040283529160200191613ce0565b820191906000526020600020905b815481529060010190602001808311613cc357829003601f168201915b50505050509250818054600181600116156101000203166002900480601f016020809104026020016040519081016040528092919081815260200182805460018160011615610100020316600290048015613d7c5780601f10613d5157610100808354040283529160200191613d7c565b820191906000526020600020905b815481529060010190602001808311613d5f57829003601f168201915b50505050509150808054600181600116156101000203166002900480601f016020809104026020016040519081016040528092919081815260200182805460018160011615610100020316600290048015613e185780601f10613ded57610100808354040283529160200191613e18565b820191906000526020600020905b815481529060010190602001808311613dfb57829003601f168201915b505050505090509450945094509450945091939590929450565b80600183604051613e439190614a6e565b9081526020016040518091039020601d019080519060200190613e67929190613f0d565b505050565b60405180606001604052806060815260200160608152602001606081525090565b828054600181600116156101000203166002900490600052602060002090601f016020900481019282601f10613ece57805160ff1916838001178555613efc565b82800160010185558215613efc579182015b82811115613efb578251825591602001919060010190613ee0565b5b509050613f0991906140a8565b5090565b828054600181600116156101000203166002900490600052602060002090601f016020900481019282601f10613f4e57805160ff1916838001178555613f7c565b82800160010185558215613f7c579182015b82811115613f7b578251825591602001919060010190613f60565b5b509050613f8991906140a8565b5090565b6040518060a0016040528060608152602001606081526020016060815260200160608152602001606081525090565b60405180610100016040528060608152602001606081526020016060815260200160608152602001606081526020016060815260200160608152602001606081525090565b604051806101400160405280606081526020016060815260200160608152602001606081526020016060815260200160608152602001606081526020016060815260200160608152602001606081525090565b6040518060c001604052806140676140cd565b8152602001614074614104565b8152602001614081614149565b815260200161408e61419c565b815260200161409b6141cb565b8152602001606081525090565b6140ca91905b808211156140c65760008160009055506001016140ae565b5090565b90565b6040518060600160405280600073ffffffffffffffffffffffffffffffffffffffff16815260200160608152602001606081525090565b60405180610100016040528060608152602001606081526020016060815260200160608152602001606081526020016060815260200160608152602001606081525090565b604051806101400160405280606081526020016060815260200160608152602001606081526020016060815260200160608152602001606081526020016060815260200160608152602001606081525090565b6040518060a0016040528060608152602001606081526020016060815260200160608152602001606081525090565b60405180606001604052806060815260200160608152602001606081525090565b6000813590506141fb81614f0c565b92915050565b600082601f83011261421257600080fd5b813561422561422082614ddf565b614db2565b9150808252602083016020830185838301111561424157600080fd5b61424c838284614eb9565b50505092915050565b60006020828403121561426757600080fd5b600082013567ffffffffffffffff81111561428157600080fd5b61428d84828501614201565b91505092915050565b600080604083850312156142a957600080fd5b600083013567ffffffffffffffff8111156142c357600080fd5b6142cf85828601614201565b925050602083013567ffffffffffffffff8111156142ec57600080fd5b6142f885828601614201565b9150509250929050565b60008060006060848603121561431757600080fd5b600084013567ffffffffffffffff81111561433157600080fd5b61433d86828701614201565b935050602084013567ffffffffffffffff81111561435a57600080fd5b61436686828701614201565b9250506040614377868287016141ec565b9150509250925092565b6000806000806080858703121561439757600080fd5b600085013567ffffffffffffffff8111156143b157600080fd5b6143bd87828801614201565b945050602085013567ffffffffffffffff8111156143da57600080fd5b6143e687828801614201565b935050604085013567ffffffffffffffff81111561440357600080fd5b61440f87828801614201565b925050606085013567ffffffffffffffff81111561442c57600080fd5b61443887828801614201565b91505092959194509250565b60008060008060008060c0878903121561445d57600080fd5b600087013567ffffffffffffffff81111561447757600080fd5b61448389828a01614201565b965050602087013567ffffffffffffffff8111156144a057600080fd5b6144ac89828a01614201565b955050604087013567ffffffffffffffff8111156144c957600080fd5b6144d589828a01614201565b945050606087013567ffffffffffffffff8111156144f257600080fd5b6144fe89828a01614201565b935050608087013567ffffffffffffffff81111561451b57600080fd5b61452789828a01614201565b92505060a087013567ffffffffffffffff81111561454457600080fd5b61455089828a01614201565b9150509295509295509295565b60008060008060008060008060006101208a8c03121561457c57600080fd5b60008a013567ffffffffffffffff81111561459657600080fd5b6145a28c828d01614201565b99505060208a013567ffffffffffffffff8111156145bf57600080fd5b6145cb8c828d01614201565b98505060408a013567ffffffffffffffff8111156145e857600080fd5b6145f48c828d01614201565b97505060608a013567ffffffffffffffff81111561461157600080fd5b61461d8c828d01614201565b96505060808a013567ffffffffffffffff81111561463a57600080fd5b6146468c828d01614201565b95505060a08a013567ffffffffffffffff81111561466357600080fd5b61466f8c828d01614201565b94505060c08a013567ffffffffffffffff81111561468c57600080fd5b6146988c828d01614201565b93505060e08a013567ffffffffffffffff8111156146b557600080fd5b6146c18c828d01614201565b9250506101008a013567ffffffffffffffff8111156146df57600080fd5b6146eb8c828d01614201565b9150509295985092959850929598565b60008060008060008060008060008060006101608c8e03121561471d57600080fd5b60008c013567ffffffffffffffff81111561473757600080fd5b6147438e828f01614201565b9b505060208c013567ffffffffffffffff81111561476057600080fd5b61476c8e828f01614201565b9a505060408c013567ffffffffffffffff81111561478957600080fd5b6147958e828f01614201565b99505060608c013567ffffffffffffffff8111156147b257600080fd5b6147be8e828f01614201565b98505060808c013567ffffffffffffffff8111156147db57600080fd5b6147e78e828f01614201565b97505060a08c013567ffffffffffffffff81111561480457600080fd5b6148108e828f01614201565b96505060c08c013567ffffffffffffffff81111561482d57600080fd5b6148398e828f01614201565b95505060e08c013567ffffffffffffffff81111561485657600080fd5b6148628e828f01614201565b9450506101008c013567ffffffffffffffff81111561488057600080fd5b61488c8e828f01614201565b9350506101208c013567ffffffffffffffff8111156148aa57600080fd5b6148b68e828f01614201565b9250506101408c013567ffffffffffffffff8111156148d457600080fd5b6148e08e828f01614201565b9150509295989b509295989b9093969950565b60006148ff83836149f5565b905092915050565b61491081614e87565b82525050565b600061492182614e1b565b61492b8185614e49565b93508360208202850161493d85614e0b565b8060005b85811015614979578484038952815161495a85826148f3565b945061496583614e3c565b925060208a01995050600181019050614941565b50829750879550505050505092915050565b600061499682614e31565b6149a08185614e6b565b93506149b0818560208601614ec8565b6149b981614efb565b840191505092915050565b60006149cf82614e31565b6149d98185614e7c565b93506149e9818560208601614ec8565b80840191505092915050565b6000614a0082614e26565b614a0a8185614e5a565b9350614a1a818560208601614ec8565b614a2381614efb565b840191505092915050565b6000614a3b601583614e6b565b91507f54657374494420616c72656164792065786973747300000000000000000000006000830152602082019050919050565b6000614a7a82846149c4565b915081905092915050565b600060a082019050614a9a6000830188614907565b8181036020830152614aac818761498b565b90508181036040830152614ac0818661498b565b90508181036060830152614ad4818561498b565b90508181036080830152614ae8818461498b565b90509695505050505050565b60006020820190508181036000830152614b0e8184614916565b905092915050565b60006020820190508181036000830152614b30818461498b565b905092915050565b60006060820190508181036000830152614b52818661498b565b90508181036020830152614b66818561498b565b90508181036040830152614b7a818461498b565b9050949350505050565b600060a0820190508181036000830152614b9e818861498b565b90508181036020830152614bb2818761498b565b90508181036040830152614bc6818661498b565b90508181036060830152614bda818561498b565b90508181036080830152614bee818461498b565b90509695505050505050565b6000610100820190508181036000830152614c15818b61498b565b90508181036020830152614c29818a61498b565b90508181036040830152614c3d818961498b565b90508181036060830152614c51818861498b565b90508181036080830152614c65818761498b565b905081810360a0830152614c79818661498b565b905081810360c0830152614c8d818561498b565b905081810360e0830152614ca1818461498b565b90509998505050505050505050565b6000610140820190508181036000830152614ccb818d61498b565b90508181036020830152614cdf818c61498b565b90508181036040830152614cf3818b61498b565b90508181036060830152614d07818a61498b565b90508181036080830152614d1b818961498b565b905081810360a0830152614d2f818861498b565b905081810360c0830152614d43818761498b565b905081810360e0830152614d57818661498b565b9050818103610100830152614d6c818561498b565b9050818103610120830152614d81818461498b565b90509b9a5050505050505050505050565b60006020820190508181036000830152614dab81614a2e565b9050919050565b6000604051905081810181811067ffffffffffffffff82111715614dd557600080fd5b8060405250919050565b600067ffffffffffffffff821115614df657600080fd5b601f19601f8301169050602081019050919050565b6000819050602082019050919050565b600081519050919050565b600081519050919050565b600081519050919050565b6000602082019050919050565b600082825260208201905092915050565b600082825260208201905092915050565b600082825260208201905092915050565b600081905092915050565b6000614e9282614e99565b9050919050565b600073ffffffffffffffffffffffffffffffffffffffff82169050919050565b82818337600083830152505050565b60005b83811015614ee6578082015181840152602081019050614ecb565b83811115614ef5576000848401525b50505050565b6000601f19601f8301169050919050565b614f1581614e87565b8114614f2057600080fd5b5056fea365627a7a723158200a92df51742da26caa81d4937b86cfd4db5eecad9d0972c7dedf87756389628a6c6578706572696d656e74616cf564736f6c63430005100040",
  "source": "// SPDX-License-Identifier: MIT\r\npragma solidity ^0.5.16;\r\npragma experimental ABIEncoderV2;\r\n\r\ncontract MentalHealth {\r\n    struct PatientCredentials {\r\n        address cryptoWalletAddress;\r\n        string healthID;\r\n        string testID;\r\n    }\r\n\r\n    struct mhtChildhoodDetails {\r\n        string questionOne;\r\n        string questionTwo;\r\n        string questionThree;\r\n        string questionFour;\r\n        string questionFive;\r\n        string questionSix;\r\n        string questionSeven;\r\n        string score;\r\n    }\r\n\r\n    struct mhtPHQ9Details {\r\n        string questionOne;\r\n        string questionTwo;\r\n        string questionThree;\r\n        string questionFour;\r\n        string questionFive;\r\n        string questionSix;\r\n        string questionSeven;\r\n        string questionEight;\r\n        string questionNine;\r\n        string score;\r\n    }\r\n\r\n    struct SentimentDetails {\r\n        string textSentiment;\r\n        string audioHash;\r\n        string sentimentOne;\r\n        string sentimentTwo;\r\n        string score;\r\n    }\r\n\r\n    struct VideoAnalysis {\r\n        string totalBlinkCount;\r\n        string blinkPerMinute;\r\n        string cvScore;\r\n    }\r\n\r\n    struct PatientMHTest {\r\n        PatientCredentials credentials;\r\n        mhtChildhoodDetails mhtcd;\r\n        mhtPHQ9Details mhtphqDetails;\r\n        SentimentDetails sentimentDetails;\r\n        VideoAnalysis videoDetails;\r\n        string finalScore;\r\n    }\r\n\r\n    mapping(string => string[]) private healthIDToTestIDs;\r\n    mapping(string => PatientMHTest) private testIDToPatientTest;\r\n\r\n    function initializePatientMHTest( string memory _healthID, string memory _testID, address _cryptoWalletAddress ) public {\r\n        require(bytes(testIDToPatientTest[_testID].credentials.testID).length == 0, \"TestID already exists\");\r\n\r\n        healthIDToTestIDs[_healthID].push(_testID);\r\n\r\n        testIDToPatientTest[_testID] = PatientMHTest({\r\n            credentials: PatientCredentials({\r\n                healthID: _healthID,\r\n                testID: _testID,\r\n                cryptoWalletAddress: _cryptoWalletAddress\r\n            }),\r\n            mhtcd: mhtChildhoodDetails(\"\", \"\", \"\", \"\", \"\", \"\", \"\", \"\"),\r\n            mhtphqDetails: mhtPHQ9Details(\"\", \"\", \"\", \"\", \"\", \"\", \"\", \"\", \"\", \"\"),\r\n            sentimentDetails: SentimentDetails(\"\", \"\", \"\", \"\", \"\"),\r\n            videoDetails: VideoAnalysis(\"\", \"\", \"\"),\r\n            finalScore: \"\"\r\n        });\r\n    }\r\n\r\n    function initializeChildhoodDetails( string memory _testID, string memory _questionOne, string memory _questionTwo, string memory _questionThree, string memory _questionFour, string memory _questionFive,string memory _questionSix, string memory _questionSeven, string memory _score ) public {\r\n        mhtChildhoodDetails memory mhtcd = mhtChildhoodDetails({\r\n            questionOne: _questionOne,\r\n            questionTwo: _questionTwo,\r\n            questionThree: _questionThree,\r\n            questionFour: _questionFour,\r\n            questionFive: _questionFive,\r\n            questionSix: _questionSix,\r\n            questionSeven: _questionSeven,\r\n            score: _score\r\n        });\r\n\r\n        testIDToPatientTest[_testID].mhtcd = mhtcd;\r\n    }\r\n\r\n    function initializePHQ9Details( string memory _testID, string memory _questionOne, string memory _questionTwo, string memory _questionThree, string memory _questionFour, string memory _questionFive, string memory _questionSix, string memory _questionSeven, string memory _questionEight, string memory _questionNine, string memory _score ) public {\r\n        mhtPHQ9Details memory mhtphqDetails = mhtPHQ9Details({\r\n            questionOne: _questionOne,\r\n            questionTwo: _questionTwo,\r\n            questionThree: _questionThree,\r\n            questionFour: _questionFour,\r\n            questionFive: _questionFive,\r\n            questionSix: _questionSix,\r\n            questionSeven: _questionSeven,\r\n            questionEight: _questionEight,\r\n            questionNine: _questionNine,\r\n            score: _score\r\n        });\r\n\r\n        testIDToPatientTest[_testID].mhtphqDetails = mhtphqDetails;\r\n    }\r\n\r\n    function initializeSentimentDetails( string memory _testID, string memory _text, string memory _hash, string memory _sentimentOne, string memory _sentimentTwo, string memory _score ) public {\r\n        SentimentDetails memory sentimentDetails = SentimentDetails({\r\n            textSentiment: _text,\r\n            audioHash: _hash,\r\n            sentimentOne: _sentimentOne,\r\n            sentimentTwo: _sentimentTwo,\r\n            score: _score\r\n        });\r\n\r\n        testIDToPatientTest[_testID].sentimentDetails = sentimentDetails;\r\n    }\r\n\r\n    function initializeEmotionDetails( string memory _testID, string memory _totalBlink, string memory _blinkPerMinute, string memory _cvScore) public {\r\n        VideoAnalysis memory EmotionalDetails = VideoAnalysis({\r\n            totalBlinkCount: _totalBlink,\r\n            blinkPerMinute: _blinkPerMinute,\r\n            cvScore: _cvScore\r\n        });\r\n\r\n        testIDToPatientTest[_testID].videoDetails = EmotionalDetails;\r\n    }\r\n\r\n    function setFinalScore(string memory _testID, string memory _score) public {\r\n        testIDToPatientTest[_testID].finalScore = _score;\r\n    }\r\n\r\n    function getAllTestIDs(string memory _healthID)  public view  returns (string[] memory _testIDs)  {\r\n        return healthIDToTestIDs[_healthID];\r\n    }\r\n\r\n    function getChildhoodDetails(string memory _testID)  public view  returns ( string memory _questionOne, string memory _questionTwo, string memory _questionThree, string memory _questionFour, string memory _questionFive, string memory _questionSix, string memory _questionSeven, string memory _score ) {\r\n        mhtChildhoodDetails memory details = testIDToPatientTest[_testID].mhtcd;\r\n        return (\r\n            details.questionOne,\r\n            details.questionTwo,\r\n            details.questionThree,\r\n            details.questionFour,\r\n            details.questionFive,\r\n            details.questionSix,\r\n            details.questionSeven,\r\n            details.score\r\n        );\r\n    }\r\n\r\n    function getPHQ9Details(string memory _testID)  public view  returns ( string memory _questionOne, string memory _questionTwo, string memory _questionThree, string memory _questionFour, string memory _questionFive, string memory _questionSix, string memory _questionSeven, string memory _questionEight, string memory _questionNine, string memory _score )  {\r\n        mhtPHQ9Details memory details = testIDToPatientTest[_testID].mhtphqDetails;\r\n        return (\r\n            details.questionOne,\r\n            details.questionTwo,\r\n            details.questionThree,\r\n            details.questionFour,\r\n            details.questionFive,\r\n            details.questionSix,\r\n            details.questionSeven,\r\n            details.questionEight,\r\n            details.questionNine,\r\n            details.score\r\n        );\r\n    }\r\n\r\n    function getSentimentDetails(string memory _testID)  public view  returns ( string memory _textSentiment, string memory _audioHash, string memory _sentimentOne, string memory _sentimentTwo, string memory _score ) {\r\n        SentimentDetails memory details = testIDToPatientTest[_testID].sentimentDetails;\r\n        return (\r\n            details.textSentiment,\r\n            details.audioHash,\r\n            details.sentimentOne,\r\n            details.sentimentTwo,\r\n            details.score\r\n        );\r\n    }\r\n\r\n    function getEmotionDetails(string memory _testID) public view returns (string memory _blinkCount, string memory _blinkPerMinute, string memory _cvScore){\r\n        VideoAnalysis memory vanalysis = testIDToPatientTest[_testID].videoDetails;\r\n        return (\r\n            vanalysis.totalBlinkCount,\r\n            vanalysis.blinkPerMinute,\r\n            vanalysis.cvScore\r\n        );\r\n    }\r\n\r\n    function getAllScores(string memory _testID)  public view  returns (string memory _historyScore, string memory _phq9Score, string memory _sentimentalScore, string memory _videoScore, string memory _finalScore) {\r\n        return (\r\n            testIDToPatientTest[_testID].mhtcd.score,\r\n            testIDToPatientTest[_testID].mhtphqDetails.score,\r\n            testIDToPatientTest[_testID].sentimentDetails.score,\r\n            testIDToPatientTest[_testID].videoDetails.cvScore,\r\n            testIDToPatientTest[_testID].finalScore\r\n        );\r\n    }\r\n\r\n    function getFinalScore(string memory _testID) public view returns (string memory) {\r\n        return testIDToPatientTest[_testID].finalScore;\r\n    }\r\n\r\n    function getmhtcdscore(string memory _testID) public view returns (string memory) {\r\n        return testIDToPatientTest[_testID].mhtcd.score;\r\n    }\r\n\r\n    function getmhtphqscore(string memory _testID) public view returns (string memory) {\r\n        return testIDToPatientTest[_testID].mhtphqDetails.score;\r\n    }\r\n\r\n    function getSentimentScore(string memory _testID) public view returns (string memory) {\r\n        return testIDToPatientTest[_testID].sentimentDetails.score;\r\n    }\r\n\r\n    function getCompleteTestDetails(string memory _testID)  public view  returns (address _cryptoWalletAddress,string memory _healthID,string memory _childhoodScore,string memory _phq9Score,string memory _sentimentalScore )  {\r\n        PatientMHTest memory testDetails = testIDToPatientTest[_testID];\r\n        return (\r\n            testDetails.credentials.cryptoWalletAddress,\r\n            testDetails.credentials.healthID,\r\n            testDetails.mhtcd.score,\r\n            testDetails.mhtphqDetails.score,\r\n            testDetails.sentimentDetails.score\r\n        );\r\n    }\r\n}",
  "sourcePath": "C:\\Users\\Aman\\Desktop\\WellWise\\src\\contracts\\MentalHealth.sol",
  "compiler": {
    "name": "solc",
    "version": "0.5.16+commit.9c3226ce.Emscripten.clang"
  },
  "schemaVersion": "3.4.16",
  "updatedAt": "2025-03-21T17:04:47.913Z",
  "networkType": "ethereum",
  "devdoc": {
    "methods": {}
  },
  "userdoc": {
    "methods": {}
  }
}